:020000040800F2
:1000000018070020D9000008E7000008E9000008F0
:1000100000000000000000000000000000000000E0
:10002000000000000000000000000000EB000008DD
:100030000000000000000000ED0000083D2C00085A
:10004000F10000082D2A000800000000BD1F000874
:10005000D92A0008BD1E0008BF1E0008C11E0008E6
:10006000D9200008651C0008F1000008000000000D
:10007000E9130008E92C0008652D0008672D000829
:10008000692D0008000000000000000000000000D2
:10009000A52C0008C52C000800000000000000008E
:1000A000351A00080000000000000000F100000800
:1000B0000000000000000000000000000000000040
:1000C0000448854600F0F2FF00480047453A000822
:1000D000C046C04618070020064880F30888064836
:1000E000804706480047FEE7FEE7FEE7FEE7FEE73B
:1000F000FEE7000018070020452C0008C10000089A
:10010000F8B50446F94D002028756875A875E8759E
:10011000A8612877E883411E298468622E4620362C
:100120003072E862288668866863208800F061FF84
:10013000EF4F394600F008FF082100F043FF00F0C0
:100140005FFFE865608800F054FF394600F0FCFE70
:10015000082100F037FF00F053FF2866A08800F068
:1001600048FF394600F0F0FE082100F02BFF00F0B8
:1001700047FF6866E08800F03CFF394600F0E4FE87
:10018000082100F01FFF00F03BFFA866208900F067
:1001900030FF394600F0D8FE082100F013FF00F0D0
:1001A0002FFFE866608900F024FF394600F0CCFE9E
:1001B000082100F007FF00F023FF2867E0682865AA
:1001C000206968656069E864A069A864E06968649A
:1001D000206A28642846A18C4030C186E18C818643
:1001E0002146203103460A7A20331A76628D4287EF
:1001F0000A7BB276226BEA63A28E828702468E7DEC
:1002000040321673268F1680897ED977A18F41835D
:10021000E18F0183206C5060606C906040342089D5
:100220002887A07A9877F8BDB048002180304173C4
:10023000C1810182817481824176C18201767047D9
:10024000AC4880697047A9485438417E002902D0E3
:10025000407A002813D0A54B9968186E4843000ACD
:100260001A46743A116A814209D21062996C884226
:1002700000D91162116AD86C814200D210627047B5
:10028000F8B504460F46FFF7DBFF984D974E743DD7
:10029000E96A091A0902090AB160E862002F1ED052
:1002A000002C0AD0012C0BD0022C0CD0032C0DD02A
:1002B000042C0ED0052C0FD02FE002F057FF2CE0BD
:1002C00002F084FF29E003F0B7F826E003F084F899
:1002D00023E003F08DFA20E003F0BAFA1DE0002CD1
:1002E0000AD0012C0BD0022C0CD0032C0DD0042CE6
:1002F0000ED0052C0FD010E002F068FF0DE002F0E8
:1003000035FF0AE003F0A4FA07E003F071FA04E015
:1003100003F062F801E003F08FF83946204603F05D
:10032000B7FF0020307570753073B075A864E8644D
:1003300028656865A865E865F17D012902D1F07539
:10034000FFF781FFF8BD10B501F02EFA6A4803F0FF
:10035000D9FF02F053FC694803F0D4FF63487438B6
:1003600040886249488210BDF8B500255F485F4B60
:100370006030743B00901C46007E603420335B4A42
:10038000002805D0207A002802D0587E002801D00D
:100390000020508655498031087E002802D0487ED2
:1003A000002817D1FFF74CFF167D012E13D04F4FB9
:1003B0000E7E743F002E02D04E7E002E0ED03E6A7E
:1003C0004A4F743FFF6A3F1A3F023F0AB74207D2C3
:1003D0000020D081F8BD0020D081F8BD5668EFE73D
:1003E000009E367E002E05D0247A002C02D05C7E42
:1003F000002C33D000245486D4813C4C743C668855
:10040000A788F619E788F6193D4F7E43360C2681FA
:100410001C7E012C26D01C7A3A4EA4003459248824
:100420001E7AF60725D0314F743F3E893C36A642EE
:100430005BD201241475147B002CCED15C7A012C84
:100440006DD000253B467D6218635562087B00280D
:100450007FD00125507D002877D07BE0D489641CB3
:10046000D481CAE71C7A274EA400183E3459248848
:10047000D6E71E4E743E368927463C37BE426BD9BE
:1004800001261675167B002EA7D15B7A9C46012BA0
:100490000FD0164E0023743E736230635362087BA4
:1004A000002836D0507D00282ED0502C34D206257E
:1004B00032E00E4B743B1F6B124B1C3B1F60536BA7
:1004C0004E68B34204D3094B8E68743B5E6205E00C
:1004D000064B743B3E1A3602360A5E62034B743B8F
:1004E0001863586A40085062D9E735E07802002066
:1004F0000000704200E000E0983A0000881300001D
:1005000054550000940000206046002804D00625C1
:1005100002E0502C00D20225012090751CE0FF4E15
:100520003D6B3B463560566B4F68BE4204D38D68C9
:100530005D6205E00DE008E02D1A2D022D0A5D62D6
:100540001863586A4008506280E7002C02D00625E4
:1005500000E0012501209075907D012894D1D0897B
:10056000022813D2002D11D000238B82508E401907
:1005700080B25086EA49498F88420FD95386E848AD
:100580000823B438418B1943418307E0508E01287A
:1005900002D9801E508601E0002050860020D081C4
:1005A000F8BDF0B50020DE4D403D2C7D012C3AD049
:1005B0000A212A46543ADB4E137A06E0DF0733D08D
:1005C000B7687F0001D5401C80B20F46491E89B232
:1005D000002FF3D1052826D3D3488369D04EB43EEB
:1005E000F16ACB1A1B022F681B0ABB4201D90123F7
:1005F0006B75CB4B40331F7E002F14D08069012CCC
:1006000011D0091A0902346A090AA1420BD3517A9E
:10061000002201290ED0726230636A62012058768E
:1006200028752873A875F0BDB7687F00CDD4401C2D
:1006300080B2CAE7698E012902D9891E698600E065
:100640006A86B64A316B1160091A0902090A716299
:10065000306348086862E1E710B5B14A403A506D2E
:100660009061114654394C7E0B461046203BC06CBD
:10067000002C02D0497A002904D0116D1962516012
:10068000106010BD1421916118625060106010BD9F
:10069000F0B5A348A54AB43805467435416AA86E3A
:1006A0002E6F864628465438407EEC6E8446284697
:1006B0008030914218D22A8A052A15D9828AC82AFE
:1006C00001D2521C8282828A0127022A03D98774AE
:1006D000EC6D2B6E00E033464322520191420CD266
:1006E00087746C6E734608E00022C2828282634681
:1006F000002B00D1427682743346894A877C403A87
:10070000526C012F02D1477E002F08D04C43240A9F
:10071000AC61407E002804D0FF20F53003E0AA61E0
:10072000F7E72D200001AC691718BC4202D9201A46
:10073000A86100E0AA61AC69286C844200D9A86174
:10074000A869904202D36046002800D0AA6174488C
:100750000A46B4385A43120A026273464B431B0AD4
:100760002B604E43310A6960AC6CA24200D904622E
:10077000066AEA6C964202D36646002E00D00262F8
:10078000A34200D92C602868904200D22A60A1427E
:1007900000D96C606868904200D26A60F0BD604A1F
:1007A000403A506B401C5063114680314968884282
:1007B00000D95163704710B559489438017A491CE3
:1007C000C9B201720024062900D30472017E007AA6
:1007D000FFF756FD52484030817C002902D00121AC
:1007E000017601E0047644764D484038C46274389E
:1007F000C16E491CC16610BD10B549484C49B4389A
:10080000406A884204D246489438417E00291CD070
:10081000484C0021204602F0FEFA414A4648403A40
:1008200091698BB2C31A6362090C401A10840121CA
:10083000204602F0ECFA01221146204602F00AFBA3
:100840000121204602F0E7FA10BD407A0028FBD0D3
:10085000FFF7B1FF10BD70B5314D403DA87D0028B8
:1008600012D0288AFF21F531884201D2401C28820B
:100870000020A87568632A4C943C607A002804D054
:10088000FFF706FFFFF7B8FF70BDFFF7E5FE012099
:100890006072E875F6E7F8B5044672B6002C0AD027
:1008A000012C0BD0022C0CD0032C0DD0042C0ED01C
:1008B000052C0FD010E002F041FC0DE002F074FDB9
:1008C0000AE002F06BFC07E002F07AFF04E002F0BD
:1008D0009BFD01E002F0A4FF114DA88E03F012FD74
:1008E000164E0121304600F07CFE01277F04394678
:1008F000304600F0D6FC0028F9D03946304600F0EA
:100900001EFC0121304600F06CFE3946304600F0F6
:10091000C8FC0028F9D00121490411E0780000202A
:10092000B8020020003C014000E000E02823000065
:10093000CA08000000400140FFFF00000024014001
:100940003746384600F0FBFBFC4EB07F8000C019F4
:100950008069640001053046090DE038015302F05A
:100960004DF962B6F54820300188B438008C09187A
:10097000F248E038005B814223D2F07F002820D08B
:10098000EE480124D438418B214341830021EC48B7
:1009900002F04DFAEB4801682143016002F02EF9A4
:1009A00000F042FE64042146384600F0C8FB0121F5
:1009B000384600F04FFC2146384600F0C0FB0120CD
:1009C000F8BDE88E03F09EFC0020F8BDF8B5642069
:1009D00003F098FCDA4C4034206885B2DA48206095
:1009E0007D20000103F08EFCD84E70694007FCD4D6
:1009F00001210022C906304600F056FD0021304694
:100A000000F028FCFF20F53003F07CFC002130468C
:100A100000F06AFBC9480021827F304600F06CFB81
:100A200001277F043946304600F089FB0822002167
:100A3000304600F0BFFDFF20F53003F063FC39467F
:100A4000304600F07CFB0121304600F0CAFD3946FB
:100A5000304600F026FC0028F9D03946304600F038
:100A60006EFB0121304600F0BCFD3946304600F0F7
:100A700018FC0028F9D001214904B44800F05FFBBC
:100A800002F0BCF8AD4F203FF88E03F03BFC00268F
:100A90003046FFF700FF00287BD1761CF6B2062E09
:100AA000F6D3F88E03F02EFCA44EE03E33881A46AF
:100AB000002700204100715A994201D90B46074690
:100AC000914200D20A46401CC0B20628F2D39B488D
:100AD0009438008C904202D2101A80B200E00020BC
:100AE0009649022260390B8F012183420ED960683A
:100AF000974B000403D5588B1043588306E0588B5E
:100B0000084358838F4B18680843186090480426A0
:100B10002030037E012B06D03B0002F0C9FE061AEE
:100B20001C1E212427283B0002F0C2FE0604070AEF
:100B30000C0E10210021017219E00321017216E050
:100B4000017214E0067212E0027210E005210172D7
:100B50000DE001720BE0067209E00021017206E06F
:100B60000321017203E00521017200E0027200F02E
:100B70005BFD0126754F76043146384600F0DFFAFA
:100B80000121384600F066FB3146384600F0D7FABE
:100B90002560F8BDF8B56E4E02272036707E3546CA
:100BA0005435002826D100242C77642028822C7507
:100BB0006C752C73AC75FFF743FB6549C862FFF792
:100BC0003FFB08630F626C862C86EC620021614853
:100BD00002F021F901215F4802F019F974722846E8
:100BE0008030847404764476C48264218182EC83EC
:100BF00001207076E88B401C82B2EA834F4820388F
:100C0000438B014654399A4205D92A7F038B9A4275
:100C100001D801224A742A7F008B824200D94F7486
:100C2000F8BD70B54A4D2035287A401CC0B22872F4
:100C30000024062800D32C72464E0021304602F0D4
:100C4000EAF80121304602F0E2F86C723B482030AD
:100C5000447684740476C48284820646943E347258
:100C60000546803D2C826C862C86EC62FFF7A3FD46
:100C7000FFF7E6FA36490863286D086201203072F2
:100C800070BD70B52D4C603C208C401C80B220841F
:100C90002246543A517E2F4E012901D100280AD014
:100CA000002828D12A486030007A002823D0507AC2
:100CB000002826D120E0107A401CC0B21072002516
:100CC000062800D31572117E107A03F0E1FAFFF7BF
:100CD000B7FA1F49C862257565752573A575207F0C
:100CE000401C207700220121304602F0B3F8002199
:100CF000304602F090F870BD10484038807E0028E1
:100D000001D0FFF758FD00220121304602F0A2F881
:100D10000021304602F07FF870BD10B50C486030FD
:100D2000007A002804D10A482030407E002803D0F1
:100D3000FFF737FCFFF78FFD10BD0000D802002041
:100D4000002C014030000020FFFF00000024014083
:100D50000402002000400140F8B52D4E0025307AF5
:100D600034461434002804D120465438407E0028EC
:100D700046D0FFF7F9FAFFF76EFD25483430807E44
:100D8000002841D0E06A401CE062E16B884231D922
:100D9000307A00282ED0208E1E49884201D2401C75
:100DA00020861B48218E5430828FB438914204D95A
:100DB0002586418B082211434183E562616DA16163
:100DC000216D0162144F0021384602F024F81148C9
:100DD000733878620020C04320840121384602F035
:100DE00016F801221146384602F034F8012138463F
:100DF00002F011F8307A002801D1E5622586F8BDAD
:100E00006586E5622586F8BDE5622586F8BD0000A9
:100E100064020020FAFF000000400140F8B50246DD
:100E20004A40D40F42004B0052085B089A4202D25B
:100E30000246084611464A0023D0C30D4A00DDB2DF
:100E4000120EAD1A202D35DA49020126490AF6059F
:100E50008A19002C00D0524220214F1B1146B94064
:100E60002A411018C20D9A4221D0002C17D0012D12
:100E700008DCDA05801AD20F8019D207DBB200F045
:100E8000DBF8F8BDDA05801A012340001B06C01804
:100E900080185A428018CA0F1043490007E04908D9
:100EA000C2071143DA05801A80194008801800F043
:100EB000BBF8F8BD61000122511A001BF7E70122BF
:100EC000D2075140AAE70122D2075040A6E70246C6
:100ED00070B54A40D30FDB0740002DD04A002AD01E
:100EE000010E140E000212020919400A520A841857
:100EF000E50104465443000A120A2E045043A41983
:100F00004219200CC543AA18120C0125AD03521C2E
:100F1000521912047F39240400D0521C104301D40A
:100F20004000491EC2B20C06C0092018401C4008EF
:100F3000802A02D003E0002070BD40084000002954
:100F400000DA0020184370BD70B502464A40D50F44
:100F500040004A00ED0740085208002814D0002A3B
:100F600012D0C40DD30D41020120C0055202490A1E
:100F7000520AE41A091812187D34914201D3641CF4
:100F800000E04900002C01DA002070BD00239142EE
:100F900001D3891A0343400849000028F7D10029EA
:100FA0000AD0914202D10121C90705E0914201D244
:100FB000012101E00121C943E005C018401900F0FA
:100FC00033F870BD420005D04200120E52428A42F0
:100FD00001DB00207047C90508187047C217C10F10
:100FE000504010B54018CA079623002100F024F89D
:100FF00010BD10B500229623114600F01DF810BD5B
:10100000410040020122400AD205090E80187F29C2
:1010100001DA00207047962903DC9622511AC84055
:101020007047963988407047002904DA401C49000F
:1010300001D140084000704770B40024050C05D170
:101040001024000402D1002921D01124050E01D161
:1010500000020834050F01D10001241D850F01D1C4
:101060008000A41C002801DB4000641C002908D07B
:1010700020252E1B0D46F540A14000D0012129431B
:10108000084301061B1B000ADB1D02D5002070BCB3
:101090007047DB05181880180029F8DA401C490051
:1010A000F5D170BC4008400070470000064C012597
:1010B000064E05E0E36807CC2B430C3C9847103400
:1010C000B442F7D3FFF700F834470008544700084C
:1010D000002904D0816E0122114381667047816E20
:1010E0004908490081667047426E090712091201DA
:1010F000090F0A434266704710B50F23072909D923
:101100000839046E89008B408A409C431A4014437E
:10111000046610BDC46D89008B408A409C431A4010
:101120001443C46510BD01238B40002A03D0C1685D
:101130001943C1607047C1689943C1607047012974
:1011400009D002290CD00122520491420DD1816DA7
:101150001143816570474169012211434161704724
:1011600041690222114341617047012212049142F8
:1011700003D1816D1143816570470122D2049142F0
:1011800003D1816D11438165704701229204914220
:1011900003D1816D1143816570470122120591428F
:1011A000FAD1816D11438165704701290AD0022966
:1011B0000DD00122D20691420ED1816D92121143BF
:1011C000816570474169012211434161704741695E
:1011D000022211434161704701229206914204D1DB
:1011E000816D9212114381657047082909D0042945
:1011F0000DD01029F8D1816D0122120511438165AE
:101200007047816D0122D204114381657047816D61
:1012100001229204114381657047002904D041687E
:10122000012211434160704741684908490041600B
:101230007047000010B50649884208D144140121C6
:10124000204601F03BFC0021204601F037FC10BD98
:10125000002401400422002903D0816811438160E9
:1012600070478168914381607047000030B58468A1
:10127000094D2C40ED4329400C4384608168EC0308
:10128000A143234019438160816803231B069943CE
:101290001A401143816030BD8FFFF9FF006880B2B2
:1012A0007047002201290BD002290ED001235B04D4
:1012B000994215D1816D194081650FD001223EE020
:1012C0004169CA07D20F426139E0416902221140E7
:1012D000416101D0012232E0002230E000222EE004
:1012E00001231B04994207D1816D1940816501D00A
:1012F000012224E0002222E001231B05994207D1AC
:10130000816D1940816501D0012218E0002216E0AC
:101310000123DB04994207D1816D1940816501D019
:1013200001220CE000220AE001239B04994206D12D
:10133000816D1940816501D0012200E00022104634
:101340007047002201290CD002290FD00123DB06AF
:10135000994216D1816D9A12114081650FD00122F8
:1013600040E04169CA07D20F42613BE04169022275
:101370001140416101D0012234E0002232E000221C
:1013800030E001239B06994208D1816D9A121140E9
:10139000816501D0012225E0002223E0102904D03C
:1013A00008290CD0042914D01CE0816D01221205FB
:1013B0001140816501D0012214E0002212E0816D0C
:1013C0000122D2041140816501D001220AE00022ED
:1013D00008E0816D012292041140816501D0012253
:1013E00000E0002210467047F8B5274C0121204646
:1013F000FFF7A7FF002845D001212046FFF79FFEF9
:1014000000F042FE21484078002839D0204A538914
:1014100011464031088C834208D95289101A80B293
:101420001C4A126C42435000040C00E00024488E19
:101430000126194F194DA04208D20021384601F06B
:10144000F6FC28683043286001F0D8FB14481549A1
:10145000844210D94888421C4A80102810D9102094
:1014600048800021384601F0E2FC286830432860BB
:1014700001F0C4FB04E04888002801D0401E4880E9
:10148000FFF76AFCF8BD000000240140680100205D
:1014900004020020AC000020002C0140300000209D
:1014A0004506000000000020F0B51025EB050227DE
:1014B00008265C10002A2BD0012907D002290AD067
:1014C00099420CD1816819438160F0BD8168012285
:1014D00011438160F0BD816839438160F0BDA14254
:1014E00003D1816821438160F0BD102908D008290B
:1014F0000AD00429F8D1816E042211438166F0BD1F
:10150000816E29438166F0BD816E31438166F0BDF5
:10151000012907D002290AD099420CD18168994348
:101520008160F0BD8168490849008160F0BD816833
:10153000B9438160F0BDA14203D18168A1438160BC
:10154000F0BD102907D0082909D00429F8D1826EEE
:101550008A438266F0BD816EA9438166F0BD816ECB
:10156000B1438166F0BD000010B54268104B104CCD
:101570001A404B68E44323401A4342604268072301
:10158000DB010C689A431C402243426082680123BD
:10159000DB020C699A431C40224382608268032369
:1015A0005B0289689A4319400A43826010BD0000BB
:1015B0008FBFFFFF10B50F23072909D90839446FE2
:1015C00089008B408A409C431A401443446710BDF5
:1015D000046F89008B408A409C431A40144304677F
:1015E00010BDFF220132002903D0816811438160C0
:1015F00070478168914381607047002101604160BC
:10160000816001617047000005490822002803D06D
:101610004868104348607047486890434860704786
:101620000024014001207047F0B593B000206F46C0
:1016300038710921797103A9029101223A730821B5
:10164000797305A9049102233B7507247C7507A9CA
:10165000069103253D7705267E7709A90891042187
:1016600008AF397179710BA90A913E7378730DA98E
:101670000C91062139757A750FA90E913C777B770D
:1016800011A91091082110AF39717D711290064C8B
:10169000082201A9204600F00CFB01218904204604
:1016A00000F0E1FA13B0F0BD002401400EB5302087
:1016B0000190C0000090622069460872014800F065
:1016C0001AFB0EBD003C014010B50121480601F097
:1016D000E7F90121014801F09DF910BD009000409B
:1016E00030B58DB001A800F0C1FC0121C80501F0A2
:1016F000D7F92C4D284600F0D1F902A800F0F4F9F2
:101700000024049405940320000406900C20079004
:1017100007208004099010200290802003900894F4
:1017200002A9284600F0BDF91E4908398A680F2031
:10173000400682438A608868092252061043886006
:101740008868FF2281329043886088688A15104338
:1017500088608868702290438860886820221043DF
:1017600088600121284600F07DF90121C80701F0B9
:1017700097F90BA800F000FC012000050B9008A9C8
:101780000C740820487401258D740BA800F0AEFB82
:10179000182008A908724C728D720AA801F012F97B
:1017A0000DB030BD083C01400E480021416381630B
:1017B000C1630C4A282140321160826970218A433A
:1017C0004032826182690B029A4301239B03D21843
:1017D0008261C2698A434032C261016A024A11438E
:1017E00001627047002C014055550000F8B568466D
:1017F00000F03CFC03200121400401F043F90024E7
:101800006846C470022101800925ED066946284614
:1018100000F0D5FB6846C47004240480694628465D
:1018200000F0CDFB2021684601806946284600F083
:10183000C6FB012168460180104E6946304600F023
:10184000BEFB1021684601806946284600F0B7FBC0
:10185000E101684601806946284600F0B0FBA1011D
:10186000684601806946284600F0A9FB6846048066
:101870006946304600F0A3FBF8BD000000040048B4
:1018800008B5684600F0F2FB0121880401F0FAF87F
:101890000120694608800020C87003208870024833
:1018A00000F08DFB08BD000000040048F8B5684654
:1018B00000F0DCFB03200121400401F0E3F80121EA
:1018C0004902684601800025C570032484700926FA
:1018D000F6066946304600F072FBFF21013168468A
:1018E0000180C57084706946304600F068FB0421B1
:1018F00068460180C5708470074E6946304600F026
:101900005EFB022168460180C570847069463046DE
:1019100000F055FBF8BD00000004004810B500F0D1
:1019200007F8FFF7ADFFFFF761FF00F027F810BDE4
:1019300038B5684600F09AFB03200121400401F00D
:10194000A1F800246A46D4700120108069460A4834
:1019500000F035FB80206A4610800925ED066946B7
:10196000284600F02CFB40216A461180D47069465D
:10197000284600F024FB38BD0004004838B568460E
:1019800000F074FB03200121400401F07BF8284C97
:1019900003220421204600F055FB012203212046AA
:1019A00000F050FB0925ED0601220F21284600F02A
:1019B00049FB06220721204600F044FB00220621B5
:1019C000204600F03FFB06220521204600F03AFBAE
:1019D00010216A461180032191701820D070694649
:1019E000204600F0ECFA08206A461080694620463E
:1019F00000F0E5FA60016A4610806946284600F06A
:101A0000DEFA80206A4610806946204600F0D7FA48
:101A100040206A4610806946204600F0D0FA202017
:101A20006A4610806946204600F0C9FA38BD0000B9
:101A30000004004810B501242405204600F048FAAF
:101A4000012804D1204600F03DFAFFF766F9012491
:101A5000E404204600F03CFA012802D1204600F0C0
:101A600031FA10BD002904D0016801221143016040
:101A70007047016849084900016070470122064823
:101A8000D203002903D00168114301607047016847
:101A90009143016070470000403C0140002101601B
:101AA000704710B54B680A68CC681A438B682343AB
:101AB0001A430B691A434B691A438B69C9691A4364
:101AC0000A43026010BD000006480368D2B21B0A38
:101AD0001B0213430360026883149A4319400A43AC
:101AE00002607047403C014010210160802141604C
:101AF00000218160C1600161042242618161510461
:101B0000C1617047014800697047000000E000E0D3
:101B1000F8B501F073F84E4E00220121304601F075
:101B200099F9FF27F537384602F0ECFB484840307A
:101B300001688CB247490160B80002F0E3FB464DF2
:101B400068694007FCD400212846FFF783FB38462C
:101B500002F0D8FB00212846FFF75FFB012100229D
:101B6000C9062846FFF7A0FC00220121304601F0FB
:101B700071F900212846FFF7B7FA0522002128460F
:101B8000FFF7BAFA01212846FFF7A2FA00212846FA
:101B9000FFF760FB0126760431462846FFF7CFFAAF
:101BA000082200212846FFF705FD01212846FFF7FE
:101BB00034FB384602F0A6FB01212846FFF711FD51
:101BC00031462846FFF76DFB0028F9D031462846FC
:101BD000FFF7B5FA01212846FFF703FD31462846F5
:101BE000FFF75FFB0028F9D001212F464904384652
:101BF000FFF7A5FA0026002501213846FFF7F1FC82
:101C0000012149043846FFF74CFB0028F8D0012198
:101C100049043846FFF793FAF86A0005000D861963
:101C20006D1CEDB2102DE7D33003010C0B4801847D
:101C300000213846FFF7F1FA642002F063FBFFF75A
:101C4000F3FC034840300460054901204870F8BDAA
:101C5000002C0140FFFF000000240140440200204E
:101C600068010020704730B585B004460D466846CF
:101C7000FFF7C3FC0121480300F012FF002200928D
:101C80001020019040010290049269462046FFF71F
:101C90006BFC00231A4629462046FFF7E7FA01218C
:101CA0002046FFF7D7FA01212046FFF7B6FA05B024
:101CB00030BDF8B507460C4616460025002F19D052
:101CC000002C17D0F2B261783846FFF773FC217808
:101CD000A94202D93846FFF707FA627821783846D8
:101CE000FFF70AFA25786468002CEBD10121384609
:101CF000FFF7EEF9F8BD30B589B005460C46012175
:101D0000C80500F0CDFE2846FFF7C8FE01A8FFF782
:101D1000EBFE20680290606801900120C0020390F1
:101D20000020049001204004059008200690072020
:101D30008004089001A92846FFF7B3FE0121284638
:101D4000FFF79CFE6068302805D10121227A090343
:101D50002846FFF7B9FE01212846FFF783FE09B0A8
:101D600030BD0000F0B591B007460C461646012183
:101D7000084600F095FE641E0E9400246846048612
:101D80000F9420200D90012510A805700CA938464D
:101D900001F094F9E9026846018449104184848481
:101DA000C684CE000A223146384601F014F82903D1
:101DB000684601854685848508A9384600F0EFFF0E
:101DC0000121384600F0FBFF0620009001950295A6
:101DD0000A200390049405940694079469463846B3
:101DE00001F042F86946384601F086F869463846FF
:101DF00001F0CEF8134D2C623C2003900194029424
:101E00006946384601F00EF90821384601F06CF8B1
:101E10000821384601F0B2F80821384601F0FAF8F6
:101E20000121384600F0B0FF7021284601F03EF94C
:101E30000121384600F0EFFF0121384600F0F7FF9E
:101E400011B0F0BD002C014010B586B00121080290
:101E500000F026FE18200390772069468880002035
:101E6000049002900875054C01A9204601F026F95E
:101E70000121204600F0CFFF06B010BD0018004041
:101E800010B586B00121480200F00AFE094803900F
:101E90000720694688800020049002900875064C4F
:101EA00001A9204601F00AF90121204600F0B3FF04
:101EB00006B010BDFFFF00000040014070477047B2
:101EC000704700000149486170470000000401406C
:101ED00005494A69024204D00968014201D0012043
:101EE0007047002070470000000401408379214AB8
:101EF0000168002B32D013688B431360516803686C
:101F0000994351600179002915D05168036819433C
:101F100051609168036899439160D168036899435F
:101F2000D160417910290BD0082912D0D1680068FE
:101F30000143D16070471168036819431160E8E7F5
:101F40009168036819439160D16800680143D160CA
:101F500070479168006801439160704700790028DC
:101F600003D0506888435060704710688843106001
:101F700070470000000401400021016001710C2243
:101F800042718171704738B5684600F06FF80121E1
:101F9000480400F077FD01240925E402ED062146FE
:101FA000284600F061F86846048003218170102102
:101FB000C1706946284600F002F838BD7047F0B598
:101FC000CA7813071B0FD20601D58A781343002263
:101FD0009406240E0E88012595402E4207D00568F0
:101FE0000F26A640B5431E46A64035430560521C49
:101FF000D2B2082AECD3071D0A88120A944600229E
:102000009406240E012595406646354207D03D686A
:102010000F26A640B5431E46A64035433D60521CE0
:10202000D2B2082AECD3CA78282A06D0482A03D18B
:10203000026909880A430261F0BD426909880A43BE
:102040004261F0BD10B54B07DB0E082901D22030EC
:1020500000E024300F249C4001689A40A1431143C2
:10206000016010BD41617047016170470021C943A3
:102070000180032181700421C1707047002A01D0C2
:1020800001617047416170471148C16B0A051149F0
:10209000120D4A80826B1205120D8A80426B120566
:1020A000120DCA80C26A1205120D4A818269120598
:1020B000120D0A83826A1205120DCA81C2691205C5
:1020C000120D0A82406A0005000D888270470000E8
:1020D00000240140040200207047000010B50121D7
:1020E0000C2000F065FC1F4C012211462046FFF732
:1020F000DBF901212046FFF758F801210D2000F0FF
:1021000057FC194C8021204600F081FE01228021DD
:10211000204600F09FFE0121204600F078FE0122BB
:102120001146204600F096FE0121152000F040FCEB
:102130000E4C0121204600F06AFE01221146204685
:1021400000F088FE0221102000F032FC084C012132
:10215000204600F05CFE01221146204600F07AFE87
:1021600010BD000000240140002C0140004001404F
:102170000010004030B500204349434A0968938865
:10218000424A002901D1002B02D0002907D104E0E6
:10219000002090801070508030BD002BFCD0107853
:1021A00000286AD15088002867D1012010700A24C5
:1021B00054805D0702D5908050705EE0CD0503D459
:1021C0004D0601D40D0603D503219180507054E0D3
:1021D0000D0501D40D0303D50421918050704CE00E
:1021E0004D0703D505219180507046E00D0703D5BA
:1021F00006219180507040E08D0703D50721918022
:1022000050703AE0CD0601D48D0603D508219180A7
:10221000507032E08D0502D5948050702DE0CC07CF
:1022200003D00B219180507027E0CC0403D502210C
:102230009180507021E09C0702D5908050701CE086
:102240001B0703D50D219180507016E04B0303D579
:102250000E219180507010E0CB0203D50F219180A8
:1022600050700AE04B0401D4090403D51021918079
:10227000507002E01121918050709088002801D0A8
:10228000012030BD002030BD30000020480000207B
:10229000F8B53B4E00243078351F002809D00121C5
:1022A00009204903C006FFF7DDFEB08828806C8056
:1022B00034707088002814D0288800284CD0688892
:1022C000401C80B26880FF22AF27411EF432BF005D
:1022D00091420FD8012109204903C006FFF7C2FE31
:1022E00010E0012109204903C006FFF7BBFE2C8046
:1022F0006C80F8BDB84205D2012109204903C0060F
:10230000FFF7B2FE7078002807D06888B842F0D98D
:102310006C802888401E2880F8BD6888C11BC829A9
:1023200006D8012109204903C006FFF79BFE0AE0F9
:10233000E1218900401AC82805D801210920490354
:10234000C006FFF791FE68880E498842E4D96C8088
:102350002888401E2880F8BD012109204903C006B5
:10236000FFF780FE6888411C698007498842F2D3E4
:102370006C80B08828807088401E7080F8BD000096
:10238000480000204C040000DC05000004480168FF
:10239000002902D18088002800D001207047000069
:1023A0003000002010B5FFF7F1FF1D498A8D52075C
:1023B000D30F0C7800211B4A032C10D0002B15D012
:1023C00000280FD01078032802D00320107051602D
:1023D00015495068884201D2401C506010BD1170F0
:1023E000516010BD01201070516010BD002805D152
:1023F0001078032802D0012803D005E01170516045
:1024000010BD02201070516010780228F8D1506879
:10241000064B401C50609842F2D3117010BD000072
:10242000AC00002050000020307500001027000094
:10243000F0B585B0FA4FFC4E38463A78C17B03912F
:10244000807B0290F748F749334680880968203B33
:1024500001935B78344600930025403C130001F063
:1024600027FA0D082ACAEFEEEDECF984632828EA72
:10247000280000F0C3FBED480560ED480560ED481D
:102480000560FDF7D1FEE84860384563BD817D6198
:102490000198407801280CD1E2480168002908D150
:1024A0008088002805D10120387065767574E2486F
:1024B000057105B0F0BD009A002A03D0002901D1B2
:1024C000002802D03D706576F3E7D7486038418830
:1024D000822905D88188822902D8C088822818D903
:1024E000FEF758FB707C012802D0022803D00AE0D6
:1024F0000920387007E0307C002807D0657601207D
:10250000307203203870CC480571D2E7092038704A
:10251000F9E7C9490879401CC0B208710A28C8D92E
:10252000092038700D81C4E7627E002A02D0C24AB9
:1025300015816576009A002A03D0002901D1002870
:1025400001D03D70B5E7FFF72FF9BB490889401C62
:1025500080B20881FF21E1318842AAD96572022048
:102560003870019901200870A3E7009A002A03D06F
:10257000002901D1002817D0002901D1002801D05D
:102580003D7096E70398002804D004203870AA48CC
:1025900045818EE70298002804D005203870A648AF
:1025A000058186E73D7084E79F486038C06BC82886
:1025B00004D29D496039401CC86319E001F0E0F97C
:1025C000207A401CC0B22072062800D32572002158
:1025D0009A4800F020FC0121984800F018FC657230
:1025E00001203072072038708F48954960380162A9
:1025F00001F09EF95DE7009A002A03D0002901D17D
:1026000000281ED03572002901D1002801D03D706C
:102610004FE70398002804D004203870864845818D
:1026200047E70298002804D00520387082480581C9
:102630003FE73D703DE772E00CE065E0ACE001E1B2
:1026400032E00198007800288ED1FEF7EAFA0320E4
:1026500038702EE7009A002A03D0002901D1002803
:1026600017D0002901D1002801D03D7021E703983F
:10267000002804D0042038706F48458119E702987B
:10268000002804D0052038706B48058111E73D70A3
:102690000FE701F01BFD01F055F90028AAD0012039
:1026A00030720320387004E7207EB87401F00EFD0C
:1026B0007869411C01D0401C78610198407800285D
:1026C00006D058480168002902D18088002891D09E
:1026D000357254480168002902D18088002801D051
:1026E0003D70E6E6F87B002804D00420387052489C
:1026F0004581DEE6B87B002804D0052038704E48BE
:102700000581D6E63D70D4E600F078FA4A4988891A
:10271000401C80B28881A0288AD93D70C9E6424811
:1027200060384563BD8100F069FA4349C888401CA0
:1027300080B2C8803B4A1368002B02D19288002ADD
:1027400005D0062038708D8100F058FAB1E6327C51
:10275000002A0DD0019A5278002A09D0BA7C237E33
:102760009A4205D1062038708D8100F047FAA0E624
:1027700019229201904289D3F87B002803D00420CB
:1027800038704D8195E6B87B002803D0052038705D
:102790000D818EE63D708CE6234860384563BD812F
:1027A000FFF702F8244A1089401C80B210811D49AD
:1027B0000B68002B02D18988002905D006203870CB
:1027C000958100F01BFA74E6317C00290DD0019B45
:1027D0005B78002B09D0BB7C247EA34205D1062068
:1027E0003870958100F00AFA63E641239B01984214
:1027F0000BD9019B5B78002B07D0002905D0062060
:102800003870958100F0FAF953E61921490288429F
:1028100084D906203870958100F0F0F949E600006F
:1028200068010020300000206402002038000020F1
:102830003C000020400000206800002000400140D3
:10284000E02E000030494889002801D1BB223A829D
:102850002D49401C4881388A00F004F9388A401C10
:1028600080B238822949884200D9398200F00AFDB5
:1028700027480168002902D18088002806D0062058
:1028800038702148858100F0B9F912E6307C0028C3
:102890000ED00199497800290AD0B97C227E914254
:1028A00006D1062038701848858100F0A7F900E6A7
:1028B000002816D001984078002812D0124819211B
:1028C000428989018A420CD9B97B002903D00521AC
:1028D00039700581EDE506213970858100F08EF9AA
:1028E000E7E5094819224189D20191428CD9B97B87
:1028F000002903D0052139700581DAE506213970F8
:10290000858100F07BF9D4E5680000201F050000F8
:102910003000002070B58269511AC1600122D203D3
:10292000914201DDC26003E0204A914200DAC260B8
:102930000469C16842680B1B5343436400228264EC
:10294000056E426E954205DB00290FDA85684D431E
:1029500085640BE0866EB54205DC002906DD8568DE
:102960004D43856402E085684D438564856C5B1941
:10297000C5695B19C361D503AB4201DDC56104E0E4
:10298000856EED03AB4200DAC561C369DB130366F4
:10299000934201DD026603E0826E934200DA026632
:1029A000026E426544610161104670BD0080FFFF08
:1029B00008B56A461070517001209070684600F0AA
:1029C00001F808BD30B5827801240178002A16D0BC
:1029D0008B080E4A9B009A1813688907C90EFF25B9
:1029E0008D40AB434578AD072D0E8D402B431360D2
:1029F0000078C006C00E84400548046030BDC8069B
:102A0000C00E844002488030046030BD00E400E025
:102A100000E100E0002904D00168012211430160B7
:102A2000704701684908490001607047704700001D
:102A300010B5FEF7F9FDFEF739FEFEF745FE3C2224
:102A400006490748FFF78EF9FFF7FEF9FFF718FA76
:102A5000FEF72CFFFEF744FE10BD000052070000F9
:102A6000002C0140064948638863C863044940312B
:102A7000A02802D97838086070472820086070477D
:102A8000002C0140054A002903D0116A014311625C
:102A90007047116A814311627047000000100240C4
:102AA000054A002903D0916A014391627047916AF7
:102AB000814391627047000000100240054A0029DE
:102AC00003D091690143916170479169814391619C
:102AD0007047000000100240704700003CB5002421
:102AE0000194012300932C490868184308600220D0
:102AF00005252D020A6802400092019A521C01929B
:102B0000009A002A02D1019AAA42F3D108688007EC
:102B100001D5009300E00094214A204810600098FD
:102B2000012838D11F4A106810231843106010681C
:102B3000C008C00010600120136803431360486898
:102B4000F0239843486048689022104348604868E2
:102B500007221202904348604868486000207D22A6
:102B6000D20000BF401C9042FBD3486898434860A5
:102B70004868802420434860002000BF401C9042E9
:102B8000FBD348689843486048684860002000BF0D
:102B9000401C9042FBD33CBD0010024000879303D1
:102BA000640000200020024007484121816001228A
:102BB0001204026041600549816105494166FF21B7
:102BC0001A318166704700008801002080BB000038
:102BD0005207000008480021C16001614161C161E4
:102BE00041648164C1640165416500238362C362FD
:102BF0008165C16501667047880100200648002193
:102C000041638163C163044A282140321160016A33
:102C1000024A114001627047002C0140AAAA00003C
:102C200004220549042803D00869904308617047CD
:102C3000086910430861704700E000E010B5FEF736
:102C400061FF10BD10B50748016801221143016002
:102C5000A0214160911E816000218160FFF73EFF4D
:102C600010BD00000010024070B5411E0B48002549
:102C7000ED43814209D80A4C61610321284600F0E6
:102C800025FE0020A061072020610420C043FFF73B
:102C9000C7FF0021284600F019FE70BDFFFFFF00AE
:102CA00000E000E010B5064C0121204600F0CBF812
:102CB000002803D00121204600F0A9F810BD000033
:102CC0000018004010B5074C0121204600F0BBF869
:102CD000002805D0FDF7D5FF0121204600F097F828
:102CE00010BD00000040014070B5FDF758FD174CC5
:102CF00020690125C00700281BD0154880680026E0
:102D000041001448002901DA057700E00677FFF753
:102D10008FFB11490878401CC0B20870102802D3FC
:102D20000E4885750E7001F0E1F8206940084000FA
:102D300020612069000607D5206980218843206131
:102D4000074801682943016070BD0000002C014064
:102D5000003C01400402002000000020AC000020E4
:102D6000300000207047704710B5064C0121204606
:102D700000F069F8002803D00121204600F047F850
:102D800010BD0000001000408022002903D001681F
:102D9000114301607047016891430160704710B5AD
:102DA0000A884B88CC881A438B8823431A430B89A3
:102DB0001A434B8989891A430A43426410BD00298A
:102DC00004D0416F0122114341677047416F4908A8
:102DD00049004167704710B54B049B0F06D0436F05
:102DE00003246403A3430C4023434367CB045B0EDB
:102DF00006D0436F7F24A401A34321400B434367C4
:102E0000416F1E2399431A401143416710BD026967
:102E10008A4302617047002904D0016801221143EE
:102E2000016070470168490849000160704701224C
:102E3000D203002903D0416C114341647047416CB7
:102E40009143416470470069084201D001207047F6
:102E500000207047002A03D0C2680A43C26070474E
:102E6000C2688A43C2607047826970239A430B78B4
:102E70005B075B0E1A438261026A0B7952085200AB
:102E8000DB07DB0F1A430262026A02239A430B7CC0
:102E9000DB079B0F1A430262CA684263114A9042E1
:102EA0001FD1026A04239A430B79DB075B0F1A4395
:102EB0000262026A08239A430B7DDB071B0F1A4349
:102EC0000262426883159A430B7EDB07DB0D1A43CF
:102ED00042604268097F4315C9079A43890D0A4336
:102EE00042607047002C0140826908239A431940D0
:102EF0000A43826170470000826907231B039A43DB
:102F00000B785B075B0C1A438261026A10239A43B9
:102F10000B79DB07DB0E1A430262026A20239A4315
:102F20000B7CDB079B0E1A430262CA688263124A5B
:102F300090421FD1026A40239A430B79DB075B0E54
:102F40001A430262026A80239A430B7DDB071B0E41
:102F50001A430262426803159A430B7EDB075B0D3E
:102F60001A4342604268097FC314C9079A43090D96
:102F70000A43426070470000002C0140826901232F
:102F8000DB029A430823194009020A438261704711
:102F9000C26970239A430B785B075B0E1A43C261C8
:102FA000026AFF2301339A430B79DB07DB0D1A43D7
:102FB0000262026A01235B029A430B7CDB079B0DD2
:102FC0001A430262CA68C263114A90421FD1026A60
:102FD00003159A430B79DB075B0D1A430262026A01
:102FE000C3149A430B7DDB071B0D1A430262426830
:102FF00083149A430B7EDB07DB0C1A434260426862
:10300000097F4314C9079A43890C0A4342607047F9
:10301000002C0140C26908239A4319400A43C26147
:103020007047000030B5C26907231B039A430B7831
:103030005B075B0C1A43C261026A01231B039A43BC
:103040000B79DB07DB0C1A430262026A01235B0384
:103050009A430B7CDB079B0C1A430262CA6802642A
:10306000114A90421ED1026A01240B79A403DB07A6
:10307000A2435B0C1A430262026A0D7D6300ED07F6
:103080009A432D0C2A4302624268A2430C7EE40755
:10309000640C224342604268097F9A43C907090CC5
:1030A0000A43426030BD0000002C0140426870239A
:1030B0009A4319400A4342607047000030B50268E5
:1030C00003231B02CC689A431C40224302600E4D2E
:1030D000A84203D001229207904206D102687023D1
:1030E0004C689A431C4022430260A84205D1026BFF
:1030F0000B7C120A12021A4302638A68C2620988B0
:1031000081620121416130BD002C01400A4809491A
:10311000016281697022914350318161816913029A
:10312000994301239B03C9188161C16991434031CF
:10313000C161704701500000002C01400A48094954
:10314000016281697022914350318161816913026A
:10315000994305231B03C9188161C169914340311B
:10316000C161704741500000002C01400A480949E4
:10317000016281697022914360318161816913022A
:10318000994305231B03C9188161C16991434031EB
:10319000C161704741500000002C01400A480949B4
:1031A000016281697022914350318161816913020A
:1031B000994301239B03C9188161C169914350312F
:1031C000C161704701540000002C01400A480949C0
:1031D00001628169702291436031816181691302CA
:1031E000994301239B03C9188161C16991435031FF
:1031F000C161704701540000002C01400A48094990
:1032000001628169702291435031816181691302A9
:10321000994301239B03C9188161C16991434031DE
:10322000C161704704500000002C014010B5FFF749
:10323000B9F8124C207803280AD1114960688842F5
:1032400006D2FEF797FF002802D0FFF721F810BD45
:103250000A490020083908704880888022780121B6
:1032600009204903C006012A04D0022A02D0FEF731
:10327000F9FE10BDFEF7F8FE10BD00005000002062
:10328000307500000A480949016281697022914342
:103290006031816181691302994303235B03C9187B
:1032A0008161C16991436031C1617047445400003C
:1032B000002C0140F0B51B4B1B49186C898A484310
:1032C000C70B596801250805ED020026174A00289A
:1032D00014DA17481446A48B874209D9601C9083DE
:1032E000FF20F530844207D39083A943596003E05F
:1032F000002C01D0641E9483D683F0BD96830B48C6
:103300000C4CC08BA74208D2441CD4833228F4D37F
:103310003220D08329435960F0BD0028FCD0401EE4
:10332000D083F0BDAC000020040200200400002087
:103330000D0B0000EC09000010B50B480B4A016CA6
:10334000938A5943C90B0A4C0123DB02A14202D9DB
:10335000416899434160918A064A914202D241688C
:103360001943416010BD0000AC00002004020020A1
:103370000D0B0000EC0900000A480949016281694F
:103380007022914340318161816913029943052381
:103390001B03C9188161C16991434031C161704704
:1033A00010500000002C01400A480949016281695F
:1033B0007022914350318161816913029943052341
:1033C0001B03C9188161C16991434031C1617047D4
:1033D00014500000002C01400A480949016281692B
:1033E0007022914350318161816913029943032313
:1033F0005B03C9188161C16991434031C161704764
:1034000014500000002C01400A48094901628169FA
:1034100070229143403181618169130299430523F0
:103420001B03C9188161C16991435031C161704763
:1034300010540000002C01400A48094901628169CA
:1034400070229143403181618169130299430323C2
:103450005B03C9188161C16991435031C1617047F3
:1034600010540000002C01400A480949016281699A
:103470007022914340318161816913029943052390
:103480001B03C9188161C16991434031C161704713
:1034900040500000002C0140F0B585B04F48504D21
:1034A0000088A8804F494843C40B7120C000201AEF
:1034B0004D4E9E2804D30120C003306405B0F0BDFA
:1034C000FFF79CFB01214803FFF7EAFA474F002171
:1034D0003846FDF7BFFEC82000F014FF0021384633
:1034E000FDF79BFEC82000F00DFF3846FDF7A2FE59
:1034F000C82000F007FF00213846FDF78EFEC820E7
:1035000000F000FF00213846FDF7E2FD6846FEF7B7
:1035100074F8002000907021019102900490694697
:103520003846FEF721F807220A213846FEF742F80E
:1035300001220A213846FDF7F6FD0120FEF764F866
:1035400001213846FDF769FEC82000F0DBFE0121AD
:103550003846FEF746F8012149043846FDF7A1FE3A
:103560000028F8D0012149043846FDF7E8FDC820BD
:1035700000F0C8FE01213846FEF733F80121490466
:103580003846FDF78EFE0028F8D001214904384660
:10359000FDF7D5FD3846FDF781FEA862FDF729FD50
:1035A00005462046FDF725FD0F21FDF70BFD2946B9
:1035B000FDF7CAFCFDF724FD306400213846FDF715
:1035C0002CFEC82000F09EFE3846FDF733FEC820D2
:1035D00000F098FEFEF728F870E70000E0F7FF1F04
:1035E000040000207A540000AC00002000240140B8
:1035F00070B53B493B4A086C128A5043C00B3A4AAB
:103600004243120B8A613A4B384CFF260A46013678
:1036100052689D8AA04202D20C78012C03D1354C0D
:10362000E47B002C08D06C1C9C82642D0BD364249A
:103630009C8232434A6006E0002D02D06D1E9D82BE
:1036400001E0B2434A60294D294A4B3D4024D28AC9
:10365000A8420AD2551CDD82FF25F535AA420CD3BB
:10366000DD824A6822434A6007E0002A02D0521EE7
:10367000DA8202E04A68A2434A601D4A1E4D802455
:10368000128BA84209D2551C1D830A2A0DD30A2287
:103690001A834A6822434A6007E0002A02D0521E79
:1036A0001A8302E04A68A2434A60114A134D01247A
:1036B0006402528BA8420AD9501C5883FF202D3037
:1036C000824203D3588348682043486070BD002A73
:1036D00002D0521E5A8370BD4868A043486070BD36
:1036E000AC000020040200207C1500001204000041
:1036F0000400002020010020530200008B0600007F
:1037000010B51D491D4A086C128A5043C00B1C4C51
:10371000FF230A4601335268A04203D3194CE47BCD
:10372000002C02D01A434A6001E09A434A60144ACE
:1037300040234B3A904203D24A681A434A6002E05F
:103740004A689A434A60104B8022984203D24B68E1
:1037500013434B6002E04B6893434B600B4B0122D9
:103760005202984203D948681043486010BD486827
:103770009043486010BD0000AC000020040200200F
:103780001204000020010020530200008B060000FC
:1037900051210A4809020162816970229143403136
:1037A000816181691302994301239B03C9188161D7
:1037B000C16991435031C16170470000002C014044
:1037C0000A4809490162816970229143503181613F
:1037D00081691302994301239B03C9188161C1695F
:1037E00091435031C161704704510000002C0140E9
:1037F0000A4809490162816970229143503181610F
:1038000081691302994301239B03C9188161C1692E
:1038100091436031C161704704510000002C0140A8
:103820000A480949016281697022914340318161EE
:1038300081691302994305231B03C9188161C1697A
:1038400091435031C161704740510000002C01404C
:103850000A480949016281697022914340318161BE
:1038600081691302994305231B03C9188161C1694A
:1038700091436031C161704740510000002C01400C
:1038800015210A4889020162816970229143403101
:10389000816181691302994301239B03C9188161E6
:1038A000C16991435031C16170470000002C014053
:1038B00030B47446641E2578641CAB4200D21D46A9
:1038C000635D5B00E31830BC184700008307FF22EC
:1038D000DB0E9A408907090E9940002808DB83080F
:1038E00009489B001818036893430B430360704713
:1038F0000007000F0838830804489B001818C369A4
:1039000093430B43C361704700E400E000ED00E027
:1039100002E008C8121F08C1002AFAD17047704798
:10392000002001E001C1121F002AFBD170470000F6
:1039300010B5034900200872097EFCF7A1FC10BDF8
:103940002402002070B500250C4C608C401C80B215
:103950006084A18C88420ED9502902D90A39A184E9
:1039600000E00125FCF727FFFCF76AFC034940391A
:10397000086300206084284670BD000044020020D7
:103980004B210348C9004184FF21F53181847047F0
:10399000440200200548064A8188528B11438180E9
:1039A000044A0168526811430160704730000020EA
:1039B00004020020AC00002010B50C4C2078032835
:1039C00003D10B48407A012803D00020E061A061B8
:1039D00010BD00F033FBE069FDF70BFB0146054825
:1039E000FDF7B2FAFDF70CFBA06110BD68010020E5
:1039F00024020020180D8F4C38B501214804FFF730
:103A000041F86846FEF732FB0925ED0601220D213B
:103A10002846FEF717FB012464036846048003224E
:103A200082701022C27069462846FEF7C8FA214605
:103A30002846FEF717FB024800210170416038BD9F
:103A40005000002000256A48FFF70EF9FDF766FFD9
:103A5000FEF7EEFF00F084FD664800F053FCFFF730
:103A60001BFDFEF755F800F0B3F97D26F600304651
:103A700000F048FC00F0ECFB00F0D0F8FEF783FA11
:103A800001220920D102C006FEF7F8FAFFF7B4FFC1
:103A9000FEF724FB5848002747760121C176574896
:103AA00000F030FC002400F03DFC641CE4B2142C57
:103AB000F9D3304600F026FC002400F095FA641C8F
:103AC000E4B21E2CF9D3FFF71BFEFFF791FDFFF7C1
:103AD0008FFD0024FFF730FC641CE4B2052CF9D301
:103AE000FFF758FFFFF760F8FFF774F8444E454CB6
:103AF00046494548086040482038817D0029F7D074
:103B0000877500F00FFCFFF773FD00F06DFA00F011
:103B100023FCFFF7CFFB00F0A7FA00F017FC30788A
:103B2000032804D137482038407A012818D0FFF7FD
:103B300051F8F761B76100F029FDFFF72BFFFFF7A0
:103B400075FB2D482038808DC00729D0FDF76AFD10
:103B5000002825D0284820384068002814D01FE0CD
:103B6000FFF72AFF6D1CADB20A2DE4D900252848C5
:103B7000B1894166FF211A31816626498161B169A7
:103B8000FEF7C8FE3081D6E71E484038408B00283B
:103B900006D121480168002902D1808800280ED072
:103BA000677020780128A3D1FDF73CFD00281CD0C8
:103BB0006078002819D03078022803D015E0012061
:103BC0006070EEE70C482038406800280DD10D48A1
:103BD0004038408B002808D10F480168002904D1E3
:103BE0008088002801D1FCF7F1FE277080E70000F3
:103BF000FFFFFF00A0860100CC000020881300001A
:103C00006801002044020020AAAA00000030004001
:103C100088010020C8FA00003000002030B593B0C1
:103C200005216D46298014206880A980E8802981BB
:103C3000282068812E4C03949620049005902D48EE
:103C400006904B22079208907D200001A8843C201A
:103C5000E884012308AD2B721E226D466A85002080
:103C600008AD2873FF252D350C956D46AA8608AD45
:103C7000AB75214A6D462A8708ADAB76CA016D4601
:103C8000AA870622EA877D22920110921B4A11928E
:103C9000082210AD2A81A972194908708B73C87364
:103CA0004861184948830C6248620A462032107203
:103CB0005072086348635076C863107620321070E3
:103CC00050708864C864086548658865C865508414
:103CD00090840C4660342072C86623746074064871
:103CE000B23050866846FCF70BFA13B030BD0000C6
:103CF00070170000F22B00004506000070383900F4
:103D00006801002004020020F1B50024009803009F
:103D1000FFF7CEFD0604070A0D101315FFF76EFA24
:103D20000DE0FFF7A1FB0AE0FFF7AAFD07E0FFF7B0
:103D3000EDF904E0FFF720FB01E0FFF729FD204F3C
:103D4000204D214E01213846FDF74BFC012149044D
:103D50003846FDF7A6FA0028F8D001214904384674
:103D6000FDF7EDF9F86A0005000D298C814202D2B9
:103D7000401A80B200E000207521C900884202D8B4
:103D80003078C00715D0FEF739FF30684008400092
:103D9000306000980D49032805D20122486892033B
:103DA0001043486009E001224868D203104348608C
:103DB00003E0641CE4B2142CC4D3FEF71FFFF8BD6B
:103DC000002401404402002030000020AC0000200C
:103DD000F8B5FEF713FF002201214148FFF73AF83A
:103DE000FF20F53000F08EFA3D4E4036306884B248
:103DF0003C4830607D20000100F084FA3A4D68694B
:103E00004007FCD400212846FDF724FAFF27F537A8
:103E1000384600F077FA00212846FDF7FEF9012127
:103E20000022C9062846FDF73FFB002201212C484D
:103E3000FFF710F800212846FDF70CFA002128466C
:103E4000FDF752F9052200212846FDF755F9012119
:103E50002846FDF73DF901212846FDF7DEF93846F1
:103E600000F050FA01212846FDF7BBFB01277F0433
:103E700039462846FDF715FA0028F9D03946284674
:103E8000FDF75DF901212846FDF7ABFB39462846D1
:103E9000FDF707FA0028F9D001212F4649043846DA
:103EA000FDF74DF900252846FFF72EFF19204001A8
:103EB00000F028FA6D1CEDB2062DF4D3002138462F
:103EC000FDF7ABF9FF20F53000F01CFAFDF7ACFB75
:103ED000012149043846FDF732F93460F8BD00008D
:103EE000002C0140FFFF000000240140F0B500203D
:103EF0003A494B890A464032128C934201D948898B
:103F0000801A374E354A35781927548BBF01042360
:103F10000022032D10D0072D0ED08A64CA640A65D2
:103F20004A658A65CA65486C401C4864B84202D933
:103F30009C434C834A64F0BD8D6C6D1C8D64BD4206
:103F400002D91C434C834A647D2574696D01AC42DF
:103F500009D9CC6D641CCC65BC4205D94C8B1C4383
:103F60004C834A6400E0CA65FF249234A0420AD917
:103F7000CC6C641CCC6405252D02AC4203D94C8B5F
:103F80001C434C834A64174CA0420AD90C6D641C34
:103F90000C6519256D01AC4203D94C8B1C434C8335
:103FA0004A64A724A400A0420AD94C6D641C4C6545
:103FB000FF25E135AC4203D94C8B1C434C834A644A
:103FC000084CDF34A042B6D9886D401C8865A02813
:103FD000B1D9488B184348834A64F0BD04020020DD
:103FE000680100204302000030B5114C208B0025F1
:103FF0001049114A0423C82809D24878401CC0B28D
:1040000048708D70142802D9D06A9843D062208BF2
:10401000FF242D34A04209D34D708878401CC0B2D3
:104020008870142802D9D06A1843D06230BD0000CD
:104030000402002004000020AC00002006480749CC
:10404000406A084B4843C20B0548C1695943C90B34
:104050005118C1617047000004020020662600006C
:10406000680100209A59000010B51248028B4B21BC
:10407000C900114C8A4203D2FF201A30608110BD62
:10408000028B7D235B019A4202D30C48608110BDF4
:10409000008B401AFCF7A2FF0949FCF718FF0949F9
:1040A000FCF752FF0849FCF7B9FEFCF7A9FF608155
:1040B00010BD00000402002068010020520700002B
:1040C000CD1CC74400805445CD8C8C43F8B50021ED
:1040D00000203D4D6B892A464032128C934207D90D
:1040E0006889801A80B2394A126C42435000000C31
:1040F000374A904200D90121364A00249689D08857
:10410000354B86420DD21F787F1CFFB21F70022FE5
:1041100018D31C70B61CB6B29681864212D9908113
:1041200010E086420ED95F787F1CFFB25F70022FCD
:1041300008D35C70022E01D9B61E968196898642FC
:1041400000D290819089FF261A36B04200D2968123
:1041500097892248874200D9908110896F6B8742E6
:104160000DD200290BD19A78521CD2B29A70002A33
:1041700005D09C70BF1C6F63874200D968636A6B6F
:10418000824201D8002910D0DF787F1CFFB2DF7097
:10419000002F0AD0DC70022A01D9921E6A636A6B72
:1041A000824202D2002900D16863686BB04200D21B
:1041B0006E630A48696B814200D96863A88E80B239
:1041C000FEF750FCF8BD000004020020AC00002007
:1041D000D50300006801002068000020520700009D
:1041E000F0B5044600230022164D174E142050430C
:1041F000801900F02BF8A84203D014205043C3B21A
:1042000003E0521CD2B20A2AF0D30A2A00D1C823F2
:10421000002B03D0143BDFB2002209E00020F0BDE8
:104220005300D819801900F011F8E052521CD2B294
:104230008A42F5D32088A84201D10120F0BD002098
:10424000F0BD0000AA550000007C000800887047FF
:1042500010B503210C48FFF7C3FF002301240A4ACD
:10426000002801D154809380084891780170012979
:1042700000D904709088012800D993800349908860
:104280002039086310BD0000F8000020CC00002099
:10429000FF23184A8133012916D091689943916010
:1042A0009168154B1B5CDB0119439160C2071348F1
:1042B000134914D082688A438260C2688A43C2600C
:1042C00082680A438260704791689943916091685F
:1042D000094B9B1F1B5CDB0119439160E6E7826879
:1042E0008A438260C2688A43C260C2680A43C2606D
:1042F00070470000003C01405E00002000040140C7
:104300000000100000210201101A420804488369CD
:1043100003E08169591A0902090A9142F9D37047E9
:1043200000E000E007480222C16A9143C1620648EA
:1043300000220276034801214030417201728272EC
:1043400070470000AC000020240200200148418991
:10435000C180704768010020F0B50020794CE289E7
:1043600021464031784F098C3B6C8A4205D9E0895F
:10437000401A80B258434000000C658900228D42EB
:1043800007D96489611A89B24B435900090CB98273
:1043900000E0BA8278826E496B4C6C4D0B89646880
:1043A000A8420CD95B1C9BB20B817D252D01AB4231
:1043B0000DD90D8104231C437C604A8207E0002B49
:1043C00002D05B1E0B8102E004239C437C60604BA7
:1043D000A724A4005B89A0420DD95B1C9BB24B8132
:1043E000FF24F534A3420FD94C817B680824234372
:1043F0007B604A8208E0002B02D05B1E4B8103E009
:104400007B680824A3437B60514B504D9C89B23597
:104410001023A8420BD9641CA4B28C81502C0ED955
:1044200050248C817C681C437C604A8207E0002C0D
:1044300002D0641E8C8102E07C689C437C60444C0A
:10444000444EE4892025B0420BD9641CA4B2CC812F
:10445000052C0ED90524CC817C682C437C604A82D3
:1044600007E0002C02D0641ECC8102E07C68AC43E3
:104470007C60394C354E2478B04214D2002C12D1D5
:10448000488A401C80B24882C8280CD94A82786881
:10449000A843984308239843042398437860CA812B
:1044A0008A814A810A812B4E2948BD8AB33602236C
:1044B000008AB5420BD9294A801880B208829A0333
:1044C000904203D30A82786818437860F0BD214E89
:1044D0005936B5420CD9FF30483080B208820122EB
:1044E000D2039042F2D30A82786818437860F0BD14
:1044F000184EB5420BD9283080B208820122D2036F
:104500009042F4D30A82786818437860F0BD002C9A
:1045100006D0B04210D90F4A524280180882F0BD2E
:10452000FF249A34A04202D9001B0882F0BD0A82FF
:10453000786898437860F0BD0A827868984378601C
:10454000F0BD000004020020AC00002017020000B3
:10455000040000202203000068010020CC0C0000B1
:104560000848002141600170C26A02239A43C26276
:10457000054801760348012240304272027281727E
:1045800070470000AC00002024020020F8B5FDF7C1
:1045900049F80024604E002807D1F06A4008400026
:1045A000F0623078012800D134705B4831780227FE
:1045B0005A4B40305A4D002912D001297ED0022991
:1045C00040D0032921D174620920B902C006FDF749
:1045D00049FDB08D400718D5A88800286FD18EE01E
:1045E000F16A49084900F162B487726A521C72622A
:1045F0009A4203D94B4A1278002A03D0AA88002A8B
:1046000007D103E0032030707462F8BD2A68002AE5
:1046100001D03770F8BD726B012A0FD04907F9D568
:10462000007A0028F6D0FCF7FDFF0028F2D0F16AEE
:1046300001200143F16230707462F8BD4807FCD478
:104640007463F8BDF06A40084000F062716A491C6A
:104650007162994203D933490978002905D040078E
:1046600030D47068002804D021E0032030707462D8
:10467000F8BD2868C1070AD02B490978002906D15E
:1046800040084000286001212848FEF7D0FB284858
:104690000422418B11404183A8881040A88049071B
:1046A00001D49043A8802878C007C00F2860A8884C
:1046B0000028DDD128680028DAD101E004E021E0FB
:1046C0003470F8BD7462F8BD2968002902D1A98848
:1046D000002900D03770F16A4A0700D43470407A5C
:1046E000002803D148084000F0623470706B012844
:1046F000E9D1F06A40084000F0623470F8BD2868E3
:10470000002801D0377000E0347001210920C9026F
:10471000C006FDF7A9FCF8BDAC000020881300001E
:10472000300000205000002068010020002C0140D3
:10473000040200205447000800000020AC000000E4
:104740001039000800480008AC0000206C0600008A
:1047500020390008000000000000000000000000F8
:104760000000000000000000000000000000000049
:104770000000000000000000000000000000000039
:104780000000000000000000000000000000000029
:104790000000000000000000000000000000000019
:1047A0000000000000000000000000000102030102
:1047B00002030201030201030087930300000000CB
:1047C00000000000000000000000000000000000E9
:1047D0000A02002008020020060200200A0200202F
:1047E0000802002006020020080200200A02002021
:1047F00006020020080200200A0200200602002013
:04000005080000C12E
:00000001FF
