:020000040800F2
:1000000058060020D5000008E3000008E5000008BD
:1000100000000000000000000000000000000000E0
:10002000000000000000000000000000E7000008E1
:100030000000000000000000E90000085D27000843
:10004000ED0000082125000800000000311E000816
:1000500021270008411D0008431D0008451D000818
:10006000111F0008511B0008ED00000800000000EF
:1000700081130008D92800084D2900084F290008DD
:1000800051290008000000000000000000000000EE
:1000900095280008B52800080000000000000000B6
:1000A000251900080000000000000000ED00000815
:1000B0000000000000000000000000000000000040
:1000C0000348854600F0F8FF00480047A1340008C7
:1000D00058060020064880F30888064880470648EE
:1000E0000047FEE7FEE7FEE7FEE7FEE7FEE700006B
:1000F0005806002065270008C1000008F8B504462E
:10010000F94D002028756875A875E875A8612877ED
:10011000E883411E298468622E4620363072E862E8
:10012000288668866863208800F051FFEF4F3946C3
:1001300000F0F8FE082100F033FF00F068FFE865EA
:10014000608800F044FF394600F0ECFE082100F022
:1001500027FF00F05CFF2866A08800F038FF3946D2
:1001600000F0E0FE082100F01BFF00F050FF686681
:10017000E08800F02CFF394600F0D4FE082100F0A2
:100180000FFF00F044FFA866208900F020FF3946E9
:1001900000F0C8FE082100F003FF00F038FFE86619
:1001A000608900F014FF394600F0BCFE082100F021
:1001B000F7FE00F02CFF2867E06828652069686575
:1001C0006069E864A069A864E0696864206A2864DA
:1001D0002846A18C4030C186E18C818621462031A1
:1001E00003460A7A20331A76628D42870A7BB276FA
:1001F000226BEA63A28E828702468E7D403216739E
:10020000268F1680897ED977A18F4183E18F018364
:10021000206C5060606C9060403420892887A07A00
:100220009877F8BDB048002180304173C1810182C8
:10023000817481824176C18201767047AC488069C1
:100240007047A9485438417E002902D0407A0028DE
:1002500013D0A54B9968186E4843000A1A46743AA1
:10026000116A814209D21062996C884200D91162E8
:10027000116AD86C814200D210627047F8B504460A
:100280000F46FFF7DBFF984D974E743DE96A091A58
:100290000902090AB160E862002F1ED0002C0AD0C2
:1002A000012C0BD0022C0CD0032C0DD0042C0ED022
:1002B000052C0FD02FE002F045FD2CE002F074FD7C
:1002C00029E002F081FE26E002F04CFE23E003F07C
:1002D0006DF820E003F09EF81DE0002C0AD0012C00
:1002E0000BD0022C0CD0032C0DD0042C0ED0052CDE
:1002F0000FD010E002F058FD0DE002F023FD0AE0FF
:1003000003F088F807E003F051F804E002F02AFE59
:1003100001E002F059FE3946204603F083FC00203C
:10032000307570753073B075A864E86428656865C9
:10033000A865E865F17D012902D1F075FFF781FF1D
:10034000F8BD10B501F0F4F96A4803F09BFC02F027
:10035000E9F9694803F096FC6348743840886249BB
:10036000488210BDF8B500255F485F4B6030743B94
:1003700000901C46007E603420335B4A002805D084
:10038000207A002802D0587E002801D00020508614
:1003900055498031087E002802D0487E002817D1B8
:1003A000FFF74CFF167D012E13D04F4F0E7E743F8A
:1003B000002E02D04E7E002E0ED03E6A4A4F743F71
:1003C000FF6A3F1A3F023F0AB74207D20020D0819E
:1003D000F8BD0020D081F8BD5668EFE7009E367E5C
:1003E000002E05D0247A002C02D05C7E002C33D065
:1003F00000245486D4813C4C743C6688A788F61946
:10040000E788F6193D4F7E43360C26811C7E012C71
:1004100026D01C7A3A4EA400345924881E7AF60756
:1004200025D0314F743F3E893C36A6425BD2012431
:100430001475147B002CCED15C7A012C6DD0002574
:100440003B467D6218635562087B00287FD00125FA
:10045000507D002877D07BE0D489641CD481CAE722
:100460001C7A274EA400183E34592488D6E71E4E25
:10047000743E368927463C37BE426BD90126167535
:10048000167B002EA7D15B7A9C46012B0FD0164E0F
:100490000023743E736230635362087B002836D0B9
:1004A000507D00282ED0502C34D2062532E00E4B41
:1004B000743B1F6B124B1C3B1F60536B4E68B34267
:1004C00004D3094B8E68743B5E6205E0064B743BB7
:1004D0003E1A3602360A5E62034B743B1863586A52
:1004E00040085062D9E735E0C800002000007042A3
:1004F00000E000E0983A0000881300005455000026
:100500001C0000206046002804D0062502E0502C84
:1005100000D20225012090751CE0FF4E3D6B3B464A
:100520003560566B4F68BE4204D38D685D6205E04E
:100530000DE008E02D1A2D022D0A5D621863586A3D
:100540004008506280E7002C02D0062500E001251B
:1005500001209075907D012894D1D089022813D272
:10056000002D11D000238B82508E401980B250860E
:10057000EA49498F88420FD95386E8480823B4389E
:10058000418B1943418307E0508E012802D9801E18
:10059000508601E0002050860020D081F8BDF0B5E3
:1005A0000020DE4D403D2C7D012C3AD00A212A4608
:1005B000543ADB4E137A06E0DF0733D0B7687F008A
:1005C00001D5401C80B20F46491E89B2002FF3D1DD
:1005D000052826D3D3488369D04EB43EF16ACB1A9E
:1005E0001B022F681B0ABB4201D901236B75CB4B41
:1005F00040331F7E002F14D08069012C11D0091ABE
:100600000902346A090AA1420BD3517A0022012956
:100610000ED0726230636A620120587628752873A2
:10062000A875F0BDB7687F00CDD4401C80B2CAE782
:10063000698E012902D9891E698600E06A86B64A58
:10064000316B1160091A0902090A716230634808A6
:100650006862E1E710B5B14A403A506D90611146C9
:1006600054394C7E0B461046203BC06C002C02D007
:10067000497A002904D0116D19625160106010BDD3
:100680001421916118625060106010BDF0B5A3484C
:10069000A54AB43805467435416AA86E2E6F864661
:1006A00028465438407EEC6E84462846803091427D
:1006B00018D22A8A052A15D9828AC82A01D2521C40
:1006C0008282828A0127022A03D98774EC6D2B6EFD
:1006D00000E033464322520191420CD287746C6E83
:1006E000734608E00022C28282826346002B00D15A
:1006F000427682743346894A877C403A526C012F95
:1007000002D1477E002F08D04C43240AAC61407EC2
:10071000002804D0FF20F53003E0AA61F7E72D2080
:100720000001AC691718BC4202D9201AA86100E088
:10073000AA61AC69286C844200D9A861A86990427A
:1007400002D36046002800D0AA6174480A46B43833
:100750005A43120A026273464B431B0A2B604E43F4
:10076000310A6960AC6CA24200D90462066AEA6C84
:10077000964202D36646002E00D00262A34200D900
:100780002C602868904200D22A60A14200D96C6097
:100790006868904200D26A60F0BD604A403A506B8F
:1007A000401C5063114680314968884200D951632A
:1007B000704710B55D4C0021204602F016F95748ED
:1007C0005B4A403881698BB2D31A6362090C511AB3
:1007D00001840121204602F004F90122114620463D
:1007E00002F01AF90121204602F0FFF810BD70B5A1
:1007F0004A4D403DA87D002812D0288AFF21F531BE
:10080000884201D2401C28820020A8756863434CAE
:10081000943C607A002804D0FFF738FFFFF7C9FF47
:1008200070BDFFF717FF01206072E875F6E7F8B5B5
:10083000044672B6002C0AD0012C0BD0022C0CD02E
:10084000032C0DD0042C0ED0052C0FD010E002F09C
:100850005FFA0DE002F06CFB0AE002F08DFA07E0AF
:1008600002F08AFD04E002F097FB01E002F0BAFD1D
:100870002A4DA88E03F006FA2E4E0121304600F0D4
:100880008AFE01277F043946304600F0E9FC002843
:10089000F9D03946304600F055FC0121304600F0D1
:1008A0007AFE3946304600F0DBFC0028F9D0012101
:1008B00037464904384600F045FC184E2036B07FD4
:1008C0008000C0198069640001053046090DE038D8
:1008D000015301F027FF62B6104840300188B43858
:1008E000008C09180D48C038005B814239D2F07F76
:1008F000002836D009480124B438418B2143418374
:1009000000210D4802F079F80C480168214301608C
:1009100001F008FF14E000000000002008010020A2
:10092000003C014000E000E02823000000400140BE
:10093000FFFF000000240140002C0140A401002022
:1009400000F048FE64042146384600F0FBFB01211C
:10095000384600F05BFC2146384600F0F3FB0120EE
:10096000F8BDE88E03F08EF90020F8BDF8B56420DC
:1009700003F088F9FE4C206885B2FE4820607D2097
:10098000000103F07FF9FC4E70694007FCD401219F
:100990000022C906304600F069FD0021304600F013
:1009A00035FCFF20F53003F06DF90021304600F0F2
:1009B000A3FBF2480021827F304600F0A4FB012710
:1009C0007F043946304600F0BDFB08220021304646
:1009D00000F0CEFDFF20F53003F054F939463046E3
:1009E00000F0B0FB0121304600F0D5FD394630461D
:1009F00000F036FC0028F9D03946304600F0A2FB62
:100A00000121304600F0C7FD3946304600F028FC91
:100A10000028F9D001214904D74800F093FB01F0E8
:100A200081FED64F203FF88E03F02CF90026304689
:100A3000FFF7FDFE00287BD1761CF6B2062EF6D31A
:100A4000F88E03F01FF9CD4EE03E33881A4600279A
:100A500000204100715A994201D90B460746914244
:100A600000D20A46401CC0B20628F2D3C3489438CC
:100A7000008C904202D2101A80B200E00020BF49E0
:100A8000022260390B8F012183420ED96068BC4B72
:100A9000000403D5588B1043588306E0588B084355
:100AA0005883B84B186808431860B54804262030AE
:100AB000037E012B06D03B0003F024FB061A1C1E0C
:100AC000212427283B0003F01DFB0604070A0C0E17
:100AD00010210021017219E00321017216E0017258
:100AE00014E0067212E0027210E0052101720DE0BE
:100AF00001720BE0067209E00021017206E0032199
:100B0000017203E00521017200E0027200F062FD53
:100B10000126994F76043146384600F013FB012137
:100B2000384600F073FB3146384600F00BFB256079
:100B3000F8BDF8B5924E02272036707E3546543502
:100B4000002826D100242C77642028822C756C750F
:100B50002C73AC75FFF772FB8949C862FFF76EFB17
:100B600008630F626C862C86EC620021864801F0D7
:100B70003CFF0121844801F034FF74722846803024
:100B8000847404764476C48264218182EC830120DB
:100B90007076E88B401C82B2EA8378482038438B19
:100BA000014654399A4205D92A7F038B9A4201D8CB
:100BB00001224A742A7F008B824200D94F74F8BD0B
:100BC00010B56F482030017A491CC9B20172002467
:100BD000062900D30472017E007AFFF74FFB6748B5
:100BE0002030817C002902D00121017601E00476C9
:100BF000447662486038C4627438C16E491CC1666C
:100C000010BD70B55E4D2035287A401CC0B22872E8
:100C10000024062800D32C725B4E0021304601F0E0
:100C2000E4FE0121304601F0DCFE6C7253482030B6
:100C3000447684740476C48284820646943E347278
:100C40000546803D2C826C862C86EC62FFF7B8FF4F
:100C5000FFF7F4FA4A490863286D086201203072F0
:100C600070BD70B5454C603C208C401C80B2208427
:100C70002246543A517E444E012901D100280AD01F
:100C8000002828D13E486030007A002823D0507ACE
:100C9000002826D120E0107A401CC0B21072002536
:100CA000062800D31572117E107A02F0BBFFFFF701
:100CB000C5FA3349C862257565752573A575207F0A
:100CC000401C207700220121304601F0A5FE0021C2
:100CD000304601F08AFE70BD28484038807E0028EA
:100CE00001D0FFF76DFF00220121304601F094FE94
:100CF0000021304601F079FE70BD10B5204860300B
:100D0000007A002804D11E482030407E002803D0FD
:100D1000FFF745FCFFF76BFD10BDF8B5184E002539
:100D20006036307A34461434002804D120465438D2
:100D3000407E002855D0FFF715FBFFF758FD0F4800
:100D40004038807E002850D0E06A401CE062E16BB1
:100D5000884240D9307A00283DD00649208E491F6C
:100D6000884201D2401C20860448218E20380DE0A4
:100D7000402C0140FFFF000000240140280100201A
:100D800054000020A401002000400140828FB438AC
:100D9000914204D92586418B082211434183E562A3
:100DA000616DA161216D0162114F0021384601F092
:100DB0001CFE104878620020C04320840121384680
:100DC00001F00FFE01221146384601F025FE0121F7
:100DD000384601F00AFE307A002801D1E562258606
:100DE000F8BD6586E5622586F8BDE5622586F8BD15
:100DF0000040014087FF0000F8B502464A40D40F8A
:100E000042004B0052085B089A4202D20246084652
:100E100011464A0023D0C30D4A00DDB2120EAD1AAE
:100E2000202D35DA49020126490AF6058A19002CD7
:100E300000D0524220214F1B1146B9402A411018C0
:100E4000C20D9A4221D0002C17D0012D08DCDA0502
:100E5000801AD20F8019D207DBB200F0F4F8F8BD87
:100E6000DA05801A012340001B06C01880185A4278
:100E70008018CA0F1043490007E04908C207114310
:100E8000DA05801A80194008801800F0D4F8F8BDFF
:100E900061000122511A001BF7E70122D2075140DD
:100EA000AAE70122D2075040A6E7024670B54A40A1
:100EB000D30FDB0740002DD04A002AD0010E140EBC
:100EC000000212020919400A520A8418E501044678
:100ED0005443000A120A2E045043A4194219200C4C
:100EE000C543AA18120C0125AD03521C5219120455
:100EF0007F39240400D0521C104301D44000491E05
:100F0000C2B20C06C0092018401C4008802A02D03A
:100F100003E0002070BD40084000002900DA0020F6
:100F2000184370BD70B502464A40D50F40004A00D4
:100F3000ED0740085208002814D0002A12D0C40D32
:100F4000D30D41020120C0055202490A520AE41A97
:100F5000091812187D34914201D3641C00E0490045
:100F6000002C01DA002070BD0023914201D3891AC0
:100F70000343400849000028F7D100290AD09142D4
:100F800002D10121C90705E0914201D2012101E00E
:100F90000121C943E005C018401900F04CF870BDAC
:100FA000420005D04200120E52428A4201DB00206C
:100FB0007047C90508187047C217C10F504010B5D7
:100FC0004018CA079623002100F03DF810BD10B567
:100FD00000229623114600F036F810BDC20F4100E2
:100FE00040020123400ADB05D207090EC0187F2901
:100FF00001DA00207047962903DC9623591AC8406D
:1010000001E096398840002AF4D040427047410000
:1010100040020122400AD205090E80187F2901DA18
:1010200000207047962903DC9622511AC840704769
:10103000963988407047002904DA401C490001D1E4
:1010400040084000704770B40024050C05D11024FE
:10105000000402D1002921D01124050E01D1000283
:101060000834050F01D10001241D850F01D1800036
:10107000A41C002801DB4000641C002908D02025A6
:101080002E1B0D46F540A14000D001212943084305
:1010900001061B1B000ADB1D02D5002070BC704737
:1010A000DB05181880180029F8DA401C4900F5D132
:1010B00070BC4008400070471CB5094800900948C2
:1010C000019005460126009C05E0E36807CC334308
:1010D0000C3C98471034AC42F7D3FEF7F5FF000004
:1010E0003C4100085C4100084A1E9141826E012388
:1010F0009A435118816670470F221140436E934303
:10110000591841667047082904D360300839C9B2BC
:10111000890002E05C308906090E0F231A408A40DC
:101120008B400168994311430160704701238B4054
:10113000002A03D0C1681943C1607047C168994350
:10114000C16070470F4A91420ADC4A1E022A13D33B
:101150000122130499420DD0520491420AD07047E3
:1011600001229304994205D0D304994202D012057A
:101170009142F4D1582200E0142283580B4383504B
:101180007047C046FFFF030010B54B1E0F2B10D851
:101190001422C0467B441B795B009F441B1B1E0727
:1011A0001E1E1E131E1E1E1E1E1E1E16012189043B
:1011B0000FE00122930699420AD0D30699420CD13E
:1011C000510406E00121C90403E00121090500E002
:1011D0001104582283580B43835010BD4A1E91417D
:1011E000426801239A4351184160704710B59749EE
:1011F000884200D010BD01214C03204601F082FA44
:101200000021204601F07EFA10BDC0464A1E9141E1
:101210008900826804239A43511881607047000056
:10122000B0B50B4C0C4081680A4D0D402919816006
:101230000721C9040B4084688C43E11881600321B5
:1012400009060A4083688B4399188160B0BDC04687
:10125000700006008FFFF9FF006880B27047000041
:1012600010B50022204B99420EDD204B01249942FB
:1012700017DC6304994225D0A30499422BD1816DD8
:1012800019408165880C10BD012915D0022924D090
:1012900001231B0499421ED1816D19408165080C00
:1012A00010BDE304994212D02305994213D1816DF8
:1012B00019408165080D10BD416901220A40426153
:1012C000104610BD816D19408165480C10BD816DBF
:1012D00019408165CA0C104610BD416902220A40BE
:1012E0004261500810BDC046FFFF0100FFFF07002C
:1012F00010B54B1E00220F2B12D8C0467B441B7921
:101300005B009F44071A2620262626282626262606
:101310002626262F416901220A404261104610BD4F
:1013200001239C06A14224D0DC06A14211D159041C
:10133000826D0A408265500C10BD416902220A404C
:101340004261500810BD01218904826D0A40826506
:10135000920C104610BD0121C904826D0A408265BD
:10136000D00C10BD01210905826D0A408265100D67
:1013700010BD1904826D0A408265100C10BD00007A
:10138000B0B5B94D01212846FFF7B2FF00285BD068
:10139000012428462146FFF7D5FEEA6B2C490A4076
:1013A0002C484280AA6B0A4082806A6B0A40C28045
:1013B000EA6A0A404281AA690A400283AA6A0A408C
:1013C000C281EA690A4002826A6A0A40828222492C
:1013D0004978002936D06021415A42898A4208D989
:1013E0004289511A89B21D4A126C4A43D10B8DB2FF
:1013F00000E000257221405A854209D91848002191
:1014000001F0FBFA174801782143017001F08AF9D5
:1014100015480188AA08DF2A10D34A1C0280112926
:1014200010D3102101800E48002101F0E6FA0D488A
:1014300001782143017001F075F903E0002901D022
:10144000491E0180FFF769FCB0BDC0460024014081
:10145000FF0F000054000020AC010020000200201B
:10146000002C0140A401002064010020002A12D0B9
:101470004A1E0F2A21D8C0467A4412795200974456
:1014800007304F354F4F4F384F4F4F4F4F4F4F3B18
:101490008168012227E04A1E0F2A19D87A4412795E
:1014A00052009744072E3D333D3D3D363D3D3D3D89
:1014B0003D3D3D398168012225E001239A06914294
:1014C00002D0DA0691422BD18168114381607047C6
:1014D00001239A06914202D0DA06914220D1816816
:1014E00011E0816802220A4382607047816E042203
:1014F00004E0816E082201E0816E10220A438266B8
:10150000704781680222914381607047816E042296
:1015100004E0816E082201E0816E10229143816611
:101520007047000010B542680F4B13404A680F4CDB
:101530001440E21842600722D2010B68134044684D
:1015400094431A1942600122D2020B691340846845
:1015500094431A19826003225202896811408368F9
:101560009343C918816010BD8FBFFFFF704000001A
:10157000082904D374300839C9B2890002E07030F8
:101580008906090E0F231A408A408B40016899434F
:101590001143016070474A1E914109020122120263
:1015A000836893435918816070470021016101608D
:1015B0004160816070470000411E8841C0000349BE
:1015C0000A6808239A4310180860704704240140F1
:1015D0000120704710B592B06120C00040226946DA
:1015E00088521C480887052008851B4808841B482A
:1015F00008831B4808821B48088183204000088616
:1016000009200002088000201190084640300F9009
:10161000084638300D90084630300B900846283088
:101620000990084620300790084618300590084673
:10163000103003900846083001900B4C08222046D9
:1016400000F0AFFA01208104204600F082FA12B0C7
:1016500010BDC0460702000004040000030500009E
:10166000020700000108000000240140F0B58DB021
:1016700001A800F03BFC0124E005214601F034F80C
:101680002A4D284600F07AF902AE304600F09EF965
:101690000720800409900C20079003273804069047
:1016A0000020009005900490089080200390102066
:1016B00002902846314600F064F90F204006296860
:1016C0008143296009204006296801432960F80107
:1016D000296881432960200229680143296028681C
:1016E000702188432860286820210143296028460A
:1016F000214600F02EF9E007214600F0F5FF0BAD82
:10170000284600F06FFBAC71E002A88020050B902A
:10171000284600F02BFB0AA884700099417018211C
:10172000017000F0CDFE0DB0F0BDC046083C014098
:1017300010B50F480021C161016241622821816218
:10174000036840210B433022D24313400360072338
:101750001B0304689C4301239B03E3180360436855
:101760000B43134043608168024A0A43826010BD04
:10177000182C014055550000F0B583B002AC20464E
:1017800000F0B4FB032040040125294600F09EFF31
:10179000022020800027E7700920C6063046214637
:1017A00000F047FB042001902080E770304621467E
:1017B00000F03FFB202020803046214600F039FB1E
:1017C0002580564F3846214600F033FB10202080FC
:1017D0003046214600F02DFB68022080304621462D
:1017E00000F027FB280220803046214600F021FB34
:1017F000019820803846214600F01BFB03B0F0BD65
:10180000F0B583B001AE304600F070FB03200090CD
:1018100040040124214600F059FF34800025F57072
:101820003E48314600F005FB802030800920C70685
:101830003846314600F0FDFAF570402030803846D9
:10184000314600F0F6FA02AE304600F04FFBA0043D
:10185000214600F03BFF3480009870802F483146CD
:1018600000F0E7FAFFF788FF00F002F803B0F0BDE0
:10187000F0B583B002AC204600F038FB03277804B3
:101880000126314600F022FF244D042128463A4625
:1018900000F017FB28463946324600F012FB0920BB
:1018A000C00601900F21324600F00BFB07210627EE
:1018B00028463A4600F005FB00222846394600F04B
:1018C00000FB052128463A4600F0FBFA14486080E8
:1018D000102020802846214600F0ABFA0820208006
:1018E0002846214600F0A5FAF00320800198214601
:1018F00000F09FFA802020802846214600F099FAC7
:10190000402020802846214600F093FA20202080A5
:101910002846214600F08DFA03B0F0BD00040048CF
:1019200003180000B0B501252C05204600F012FA7E
:10193000012804D1204600F007FAFFF7DEF9EC0495
:10194000204600F007FA012802D1204600F0FCF9F9
:10195000B0BD4A1E9141026801239A4351180160AB
:1019600070470000481E8141C8030121C903164A7F
:1019700013688B43181810607047C046002101603F
:101980007047F0B581B000900B680F1DF4CF8869E7
:10199000C9691A4322432A4332433A4302430A4362
:1019A0000098026001B0F0BD10B507480368FF243D
:1019B000A343D2B29A1802600122120311400368B5
:1019C00093435918016010BD403C0140B0B500215F
:1019D0000422802310240125ED040460436081600B
:1019E000C160016142618161C561B0BD01480068AB
:1019F0007047C04610E000E0F0B583B000F092FE02
:101A00004D4E3746403F012500223846294601F019
:101A100003F87D24A000029002F034F930680190B0
:101A200046483060200102F02DF9454C60694007BE
:101A3000FCD4002620463146FFF7E8FB029802F06E
:101A400021F920463146FFF7C9FBE9062046324618
:101A5000FFF70CFD38462946324600F0DDFF2046F0
:101A60003146FFF749FB052220463146FFF74BFB85
:101A700020462946FFF738FB20463146FFF7C6FBD4
:101A80006F0420463946FFF75DFB082220463146A9
:101A9000FFF76EFD20462946FFF7A0FB029802F0F3
:101AA000F1F820462946FFF776FD20463946FFF734
:101AB000D7FB0028F9D020463946FFF743FB012128
:101AC0002046FFF768FD20463946FFF7C9FB00288E
:101AD000F9D020463946FFF735FB3546012120462F
:101AE0000291FFF758FD20463946FFF7B9FB002861
:101AF000F9D020463946FFF725FBE06A1149084036
:101B00008619681C0F2D0546E8D3300960210E4A5E
:101B1000505200212046FFF761FB642002F0B2F82A
:101B2000FFF758FD094802994170019880B20249B7
:101B3000086003B0F0BDC046402C0140FFFF00002C
:101B400000240140FF0F000054000020AC010020E1
:101B50007047F0B587B00191044602AF3846FFF7F1
:101B600024FD01256803294600F0BEFD00260696E7
:101B70006802049010200390029620463946FFF731
:101B8000D1FC2046019932463346FFF749FB2046F7
:101B90002946FFF73BFB20462946FFF71FFB07B00E
:101BA000F0BDF0B581B0002821D00D4600291ED02F
:101BB00004460027D6B209E06A7829782046FFF764
:101BC000A2FA68682F78002805460CD0697820466C
:101BD0003246FFF7CDFC2978F8B28842ECD2204695
:101BE000FFF78AFAE8E701212046FFF77DFA01B006
:101BF000F0BDF0B589B00D4604460126F00531462A
:101C000000F072FD2046FFF7B9FE01AF3846FFF73E
:101C1000DDFE0720800408900820069070040590DF
:101C200000200490F002039003CD02900191204621
:101C30003946083DFFF7A5FE20463146FFF792FEE4
:101C40006868302804D12A7A31032046FFF7ACFEB9
:101C500001212046FFF77DFE09B0F0BDF0B593B03D
:101C600001920F46044601252846294600F03CFD16
:101C70000EA900260E800D741196781E109020205B
:101C80000F90204600F0FCFF0AAF0198F880BE805C
:101C9000A8027880E8023880690300910A22019244
:101CA000204600F085FEBE810098788128033881A7
:101CB0002046394600F065FE2046294600F070FEB9
:101CC00006960198059004950395062002900796C4
:101CD0000896099602AF2046394600F0A7FE204636
:101CE000394600F0EBFE2046394600F033FFB44899
:101CF00006623C200590049603962046394600F083
:101D000071FF08272046394600F0D0FE20463946AC
:101D100000F016FF2046394600F05CFF20462946B9
:101D200000F026FE7021A64800F0A2FF20462946BA
:101D300000F05BFE2046294600F05FFE13B0F0BDC8
:101D40007047704770470000014908607047C046FF
:101D5000140401400146224842690A4204D0006846
:101D60000840411E884170470020704710B58279B5
:101D70001B49002A0ED002680B6893430B604B6826
:101D800093434B60D3430479002C0CD04C6814432C
:101D90004C600BE00268D243007900281CD04868F0
:101DA0001040486010BD0C6814430C608C681C40E7
:101DB0008C60CC681C40CC604079082808D0102882
:101DC00002D1886810438860C8681043C86010BD9D
:101DD00088681043886010BD08681040086010BD16
:101DE000000401400021817101600321890281808A
:101DF0007047000070B582B001AC204600F076F864
:101E000001256804294600F061FC0920C606ED02A0
:101E10003046294600F067F8044860802580304647
:101E2000214600F006F802B070BDC0460310000065
:101E30007047F0B583B0CB780F221C460292144055
:101E40000193DD0601D58D782C4300910A88002688
:101E5000374603E0361D7F1C082F0CD01546FD4089
:101E6000ED07F7D02546B540029BB3400168994382
:101E700029430160EEE70099098800910D0A0026C8
:101E8000374603E0361D7F1C082F0CD02946F94049
:101E9000C907F7D02146B140029AB2404368934344
:101EA0000B434360EEE70199282903D0482906D166
:101EB000102200E014228158009B1943815003B086
:101EC000F0BDB0B5082901D3242300E02023C45875
:101ED0004907C90E0F258D40AC438A402243C250AA
:101EE000B0BD416170470161704700000249418007
:101EF000024901807047C04603040000FFFF000054
:101F0000002A02D01022815070471422815070475D
:101F10007047000070B584B0684601248470447036
:101F20000C21017000F0CCFA244D284621462246AF
:101F3000FFF79CFA28462146FFF726F901A884708E
:101F400044700D21017000F0BBFA1D4D802628461B
:101F5000314600F046FD28463146224600F05CFD41
:101F60002846214600F03DFD28462146224600F045
:101F700053FD02A8847044701521017000F0A0FA8E
:101F8000104D2846214600F02CFD284621462246C9
:101F900000F042FD03A884700221417010210170FD
:101FA00000F08EFA084D2846214600F01AFD28461A
:101FB0002146224600F030FD04B070BD00240140EF
:101FC000002C01400040014000100040F0B581B0FD
:101FD0000B4F38780C2800D9A2E140007844808863
:101FE000400087440F00F700D500B1005E007D007F
:101FF0000C01160167013E019D019D013600C0469E
:10200000AC01002000F08EFBFE4800240460FE4876
:102010000460FE480460FEF705F97C61BC81FC4861
:1020200044634121415C012900D079E1F9490A6802
:10203000002A00D074E18988002900D070E1712164
:1020400044543921445401203870FE48047001B0D2
:10205000F0BD0024BC81F94D6C6300F063FBFA49CC
:102060000888401C0880F6498A880968114363D1B2
:102070007021695C002908D04121695C002904D0E5
:102080003821695CBA7C8A4256D080B2800919280E
:1020900000D245E1F87B002800D1E5E1FD4804804D
:1020A0006AE1FC4C2088002801D1BB213982401C08
:1020B0002080388A00F0FCFA388A401C80B2F64949
:1020C000884200D30846388200F0A2FEF348818897
:1020D00002680A4300D105E1F348002101802DE0A8
:1020E0000024BC81EE4D6C63FFF722FBF0480188B1
:1020F000491C0180E9488288036813431CD14122AE
:10210000AA5C7023EB5C002B06D0002A04D0382692
:10211000AD5DBE7CAE420FD0002B89B204D0E54B42
:10212000994201D3002A07D119225202914203D8C1
:102130000078C00700D1F3E0DB4804800620387047
:1021400000F0F0FA01B0F0BD3820D54C205CB87436
:1021500001F0ACFC7869401C00D278614120205C21
:1021600043424341CD488188026810460843451EDA
:10217000A8411843012800D0D2E068230020E05491
:102180004B1E9941002A00D0012101291BD168E191
:102190004120C34A105C44424441C04881880368DE
:1021A00018460843451EA8412043012800D0B2E04C
:1021B0006824002010554A1E9141002B00D00121B7
:1021C000012900D14DE1F97B002900D124E1B14979
:1021D0000880D1E04120B24C205C41424141AF48EF
:1021E000828800681043421E90410843012800D0B5
:1021F00098E0392000212154397001B0F0BD00F081
:1022000091FAA9480188491C018088B2A12867D2A7
:1022100086E04120A24C205C424242419F4988888E
:1022200009680B4603435D1EAB411343012B50D09D
:1022300001F03CFC6225605B421C62536420215A21
:1022400092B28A426CD9512900D2FFE00A39215258
:10225000FEF7B6FCFDF7F2FF00216153206301B0E9
:10226000F0BD39208E4C215C002903D0002121547F
:102270008F4801804120205C41424141874882884B
:1022800000681043421E90410843012828D0FFF700
:102290004FFA87480188491C01800F20400189B20C
:1022A00081423DD92920002121544020012121547F
:1022B0000220D6E041207A4D285C424242417749D3
:1022C000888809680B4603435C1EA3411343012B16
:1022D00054D1421E9041002900D00120012845D14F
:1022E0000020BEE041216E4A535C591E8B41702193
:1022F000515C4D1EA9411940012905D13823D25CFA
:10230000BB7C934200D1E7E6664A531C22889A427E
:1023100067D8002366E04020105C002800D181E0EF
:1023200001B0F0BD6088822806D8A088822803D832
:10233000E088832800D29DE0FEF7FBFB7120215C42
:10234000092001290CD002290BD17021615C0029E0
:1023500006D0682001212154392000212154032076
:10236000387056480021017001B0F0BDF87B00289C
:102370005BD0484800210180042072E0E86BC72848
:1023800002D8401CE86323E00F20400101461431CD
:102390006422A9527830622168522820295C491CA5
:1023A000CAB20024052A224600D80A462A54BE484A
:1023B000214600F01AFB0126BB48314600F011FB14
:1023C00068202E5429202C54072038703A4828625F
:1023D0002821002068543821695CFDF74FFF01B0C7
:1023E000F0BD01231940012903D1B87B002820D179
:1023F00072E60078C00700D06EE62C4882428FD388
:10240000F3E7C046880100208C010020D0010020A5
:1024100054000020A4010020B97B002921D02449C8
:10242000088009E0FEF7EDFB1AE0B87B002800D138
:1024300056E71F4800210180052012E054000020CB
:10244000A40100208001002084010020FEF7B8FBD9
:10245000FDF7F4FE682101226254002161532063DC
:102460000320387001B0F0BDB87B00280FD01048B1
:102470000480E1E711480178491C0170C8B20B28BB
:1024800000D24DE70A48002101800920E9E73C70AD
:1024900001B0F0BD820100201F050000A401002052
:1024A000540000203F0600007C010020810C000049
:1024B0007E01002041100000E02E0000800100207D
:1024C00070B501788278002A15D0FC220A400D4BA5
:1024D000D4588D07ED0EFF26AE40B44340788001FE
:1024E000C0B2A8402043D0501F20084001218140A5
:1024F0000548016070BD1F2001400120884003494C
:10250000086070BD00E400E000E100E080E100E070
:102510004A1E9141026801239A4351180160704795
:1025200070470000F0B595B06120C000402203A9BB
:102530008852524808870520088551480884514828
:10254000088351480882514808818320400008864A
:1025500009200290000208800024149408464030AC
:102560001290084638301090084630300E900846D9
:1025700028300C90084620300A9008461830089001
:10258000084610300690084608300490404E082255
:102590003046FFF706FB0125A9043046FFF7D9FABC
:1025A00003A9622008722E02304601968030039003
:1025B000302004903748FFF71CFB6806294600F0DE
:1025C00093F835482946FFF7A3FF344834493C22A5
:1025D000FFF744FB3046294600F086F803A9772030
:1025E00008800C740694182005900494B04E304670
:1025F00000F046FB3046294600F0F7F96F023846F6
:10260000294600F071F803A9072008800C7406948D
:10261000244805900494AF4E304600F031FB30461C
:10262000294600F0E2F903AE3046FFF75FFC0324D1
:102630006004294600F04AF8378074800298C50685
:1026400028463146FFF7F5FB019830807480284614
:102650003146FFF7EEFB042030807480134D28468E
:102660003146FFF7E6FB0220308074802846314671
:10267000FFF7DFFBFEF7FAFF15B0F0BD0702000021
:102680000404000003050000020700000108000028
:1026900000240140003C014000900040002C01401B
:1026A00052070000FFFF0000004001400004004806
:1026B0000549086048608860A02802D82820C860C2
:1026C00070477838C8607047342C0140054A0029AB
:1026D00003D0116801431160704711688143116094
:1026E0007047C04620100240054A002903D01168F7
:1026F0000143116070471168814311607047C04603
:1027000028100240054A002903D0116801431160D6
:1027100070471168814311607047C046181002402D
:10272000704700000548002141618161C161282195
:1027300001620168024A0A4002607047202C014091
:10274000AAAA0000001F41424141880050490A687E
:1027500004239A43101808607047C04680B5FFF7FD
:1027600045F980BD70B582B03548031F1A68012154
:102770000A431A60A02202600022D44344604260EF
:10278000019200911C680C431C601C6802252540C6
:102790000095019C641C0194009C002C04D105242C
:1027A0002402019DA542F0D11B689B0702D400239F
:1027B000009300E00091234D234B2B60009C012CE3
:1027C0003BD1224C236810261E432660266807232F
:1027D0009E4326602D681E4EAD196D1EB54200D376
:1027E000114622680A4322600268F0218A4302608F
:1027F00002689024144304601A0203689343036040
:10280000026802607D22D200134600BF5B1EFCD12D
:1028100003688B430360036880241C4304601346F1
:1028200000BF5B1EFCD103688B430360016801603D
:1028300000BF521EFCD102B070BD2B6002B070BD53
:102840000410024040000020008793030020024053
:10285000803C36FEB0B5401E010E0B4D0B4C0BD12B
:102860000B494860206828400322920780182060A6
:1028700000208860072008600420C043FFF762FF43
:10288000206828402060B0BDFFFFFF0020ED00E081
:1028900010E000E010B5064C0121204600F0B7F82A
:1028A000002803D00121204600F09BF810BDC0464F
:1028B0000018004010B5074C0121204600F0A7F891
:1028C000002805D0FEF7CDF90121204600F089F857
:1028D00010BDC0460040014010B5FDF75EFF154C2D
:1028E0002068C00719D0144800684000C00F134981
:1028F0000877FFF76BFB12480178491C0170C9B2D9
:10290000102904D3002101700E480121817500F0C7
:10291000E5FF20680121884320602068000608D573
:1029200020688021884320600748017801220A43FB
:10293000027010BD102C0140083C014054000020E2
:102940009001002000020020A40100207047704781
:1029500010B5064C0121204600F059F8002803D09C
:102960000121204600F03DF810BDC0460010004097
:102970004A1E9141C901026880239A43511801609F
:1029800070470A884B8813438A881A43CB881343BD
:102990000A891A434B891343898919434164704753
:1029A0004A1E9141426F01239A4351184167704773
:1029B000B0B503235C030B46234003D0456FA5430A
:1029C0001D4345677F239B01194003D0446F9C43FF
:1029D0000C4344671E210A40436F8B43991841679B
:1029E000B0BD02698A43026170474A1E9141026884
:1029F00001239A435118016070474A1E9141C9034F
:102A00000122D203436C9343591841647047006913
:102A10000840411E88417047002A03D0C2680A431B
:102A2000C2607047C2688A43C260704770B58269ED
:102A300070239A430B685B075B0E9A188261036AE6
:102A4000012293434C6825461540EB180362036A44
:102A50000225AB430D69ED07AD0FEB180362CB68A0
:102A60004363804B1D1FA84200D070BD056A042639
:102A7000B543E407640F2C190462046A0825AC43CB
:102A80004D69ED072D0F2C19046210021C68844358
:102A90008869C007C00D0019186050021A68824387
:102AA000C869C007800D8018186070BD08221140E9
:102AB000836993435918816170470000B0B50722BC
:102AC0001203836993430A685207520CD218826139
:102AD000026A10239A434B68DB07DC0EA2180262DD
:102AE000026A2024A2430C69E407A40EA218026221
:102AF000CA6882635B4A141FA04200D0B0BD046A5A
:102B00004025AC435B0EE3180362036A8024A343B1
:102B10004C69E401E4B2E318036201208302146803
:102B20009C438B69DB075B0D1B191360C0021368A4
:102B30008343C869C007000DC0181060B0BDC0460F
:102B40000122D2020902114083699343591881611D
:102B50007047000070B5C26970239A430B685B0729
:102B60005B0E9A18C26101221302056A9D434B68ED
:102B7000DC07E30D5B1903625302056A9D430B6991
:102B8000DB079B0D5B190362CB68C363354B1D1FCD
:102B9000A84200D070BD9502066AAE43640D341998
:102BA0000462D402056AA5434C69E407240D641944
:102BB000046210031C6884438869C007C00C0019B4
:102BC000186050031A688243C869C007800C8018D7
:102BD000186070BD08221140C36993435918C16140
:102BE0007047000070B507221203C36993430A6857
:102BF0005207520CD218C26101221303046A9C438B
:102C00004B68DB07DD0C2C1904625203046A944301
:102C10000A69D207920C12190262CA680264114A48
:102C2000141FA04200D070BD056A0F4C25405B0CFC
:102C3000EB180362056A0D4B1D404E69F603B6B2F0
:102C400075190562106820408C69E407640C20182F
:102C5000106010681840C969C90389B2081810606B
:102C600070BDC046042C0140FFBFFFFFFF7FFFFF88
:102C70007022114043689343591841607047000027
:102C800010B50322120203689343CC681440E21883
:102C90000260104A904203D001229207904211D163
:102CA000026870239A434C681C40A21802600A4ACA
:102CB0001346303B984205D11368FF24A3430C7C94
:102CC0001B1913608A68C26209888162012141610F
:102CD00010BDC046002C0140302C0140D4480B49A7
:102CE0008160016850220A4320218A430260072143
:102CF000090302688A430121890351180160416870
:102D000040220A4330218A4342607047015000004C
:102D1000052001030A464132C548826002685023FB
:102D20001343202293430360072212030368934353
:102D300059180160416840220A4330218A434260A9
:102D40007047C046052001030A464132B8488260F8
:102D50000268602313431022934303600722120387
:102D60000368934359180160416840220A433021A7
:102D70008A4342607047C04610B5AD48164981602D
:102D8000036850210B432022D243134003600723E2
:102D90001B0304689C4301239B03E31803604368FF
:102DA0000B431340436010BDA1480B49816001688B
:102DB00060220A4310218A43026007210903026846
:102DC0008A430121890351180160416850220A4356
:102DD00020218A43426070470154000094480B4907
:102DE0008160016850220A4320218A430260072142
:102DF000090302688A43012189035118016041686F
:102E000040220A4330218A43426070470450000048
:102E100010B587480A498160036860210B4310227E
:102E2000D2431340036007231B0304689C4303231E
:102E30005B03E318036043680B431340436010BD1A
:102E400044540000B0B52A48818AD748036C4B43EC
:102E500041790A0711D4184A00241480174A1488AB
:102E6000174DAB421AD8631C1380322C1AD332236D
:102E70001380082211434171B0BD0F4A14881D4DC3
:102E8000AB4210D3631C1380A3087D2B0FD3FF2309
:102E9000F433F72421404171581C07E0002C01D085
:102EA000601E1080B0BD002C01D0601E1080034851
:102EB00000210180B0BDC046920100209401002095
:102EC000FFFFF5040A498A8AB748036C5343094A4D
:102ED000934203D34279F72313404371898A064A08
:102EE000914203D8417908220A4342717047C04693
:102EF0005400002000008705EB090000B0B5052054
:102F000001030A4610324A48826003684022134394
:102F10003024E4432340036007231B0305689D43DB
:102F2000691801604168114321404160B0BDC0464D
:102F3000052001030A4614323D488260026850238E
:102F40001343202293430360072212030368934331
:102F500059180160416840220A4330218A43426087
:102F60007047C04632480B498160016850220A43CD
:102F700020218A4302600721090302688A43032152
:102F8000490351180160416840220A4330218A43B5
:102F90004260704714500000F6481749816001688C
:102FA00040220A4330218A43026007210903026854
:102FB0008A430521090351180160416850220A43E0
:102FC00020218A4342607047F7480B4981600168BD
:102FD00040220A4330218A43026007210903026824
:102FE0008A430321490351180160416850220A4372
:102FF00020218A434260704710540000B0B505207C
:1030000001030A464032F5488260036840221343B8
:103010003024E4432340036007231B0305689D43DA
:10302000691801604168114321404160B0BDC0464C
:10303000182C0140F0B587B05548008855490880E4
:1030400055494118F022D243914205D80120C003CE
:10305000B649086407B0F0BD50494143C80B019020
:10306000FFF760FB012670033146FFF73DFB4C4C38
:10307000002520462946FEF7C9F8C827009738469C
:1030800000F000FE20462946FEF7A8F8384600F07A
:10309000F9FD2046FEF7AAF8384600F0F3FD204679
:1030A0002946FEF79BF8384600F0ECFD20462946FD
:1030B000FEF71AF802AF3846FEF777FA0695049540
:1030C00070200390029520463946FEF72BFA0A2518
:1030D000072220462946FEF74BFA2046294632466B
:1030E000FEF724F83046FEF767FA20463146FEF731
:1030F00075F8009800F0C6FD20463146FEF74BFA01
:10310000750420462946FEF7ABF80028F9D0204682
:103110002946FEF717F8C82000F0B4FD012120462B
:10312000FEF739FA20462946FEF79AF80028F9D02A
:1031300020462946FEF706F82046FEF78DF805469C
:10314000184805600198FDF742FF47210906FDF781
:10315000ACFE06462846FDF73AFF01463046FDF72D
:10316000E1FEFDF754FFCD49086400212046FEF73B
:1031700035F8C825284600F085FD2046FEF736F8CC
:10318000284600F07FFDFEF725FA07B0F0BDC046E7
:10319000E0F7FF1F7A010020B6F9FFFF7A54000024
:1031A000002401409801002000020020B0B5BA4878
:1031B000028ABA48016C5143CA0B3B4B53431A0B6A
:1031C00082610278541E621E9441594A914201D391
:1031D000002500E00125354A1388254208D1524CCC
:1031E000E47B002C04D1002B0CD05B1E13800DE07F
:1031F0005C1C1480642B09D364231380427901235F
:10320000134302E04279FE2313404371284B1C888C
:10321000FF222C32274DA9420CD8651C1D80154673
:10322000C835AC420FD91446C9341C8003794024F8
:103230001C4307E0002C02D0641E1C8003E00379CD
:10324000BF241C4004711C4B1C881C4DA94209D88A
:10325000651C1D800A2C0ED30A241C80037980244F
:103260001C4307E0002C02D0641E1C8003E003799D
:103270007F241C400471124B1C88124DA94209D3B3
:10328000611C198094420ED9511C19804179022287
:103290000A4307E0002C02D0601E1880B0BD4179BF
:1032A000FD220A404271B0BD7C150000A201002041
:1032B0009E010020FF7FE301A0010020FF7F290184
:1032C0009C0100200000460370B51748C47B601EB7
:1032D0008441D048018ACB48026C4A43144D0121F5
:1032E0000023AA420D4600D31D4625434479FC26FF
:1032F000264074190F4DAA420D4600D81D466D0098
:10330000641944710C4CA2420C4600D31C46A40123
:103310000A4DAA4200D31946C901091902793F236F
:103320001340C918017170BD660100200002002021
:1033300000000902FFFF45030080E301008029012E
:10334000512001024D488160016840220A4330212A
:103350008A4302600721090302688A430121890325
:1033600051180160416850220A4320218A4342607B
:103370007047C046182C014010B54048184981607C
:10338000036850210B432022D243134003600723DC
:103390001B0304689C4301239B03E31803604368F9
:1033A0000B431340436010BD182C014033480C49B7
:1033B0008160016850220A4320218A43026007216C
:1033C000090302688A430121890351180160416899
:1033D00060220A4310218A4342607047182C014042
:1033E00004510000254817498160016840220A43C2
:1033F00030218A4302600721090302688A430521BC
:10340000090351180160416850220A4320218A4370
:103410004260704719480B498160016840220A43A5
:1034200030218A4302600721090302688A4305218B
:10343000090351180160416860220A4310218A4340
:103440004260704740510000152081020B488160A6
:10345000016840220A4330218A43026007210903A0
:1034600002688A4301218903511801604168502292
:103470000A4320218A4342607047C046182C01400D
:10348000CC48408BCD498A8802438A80CC4840682A
:103490000A6802430A6070475400002000020020BE
:1034A00082B05648FFF7D6F9FEF7AAF9FFF73AF8C7
:1034B00000F038FD524800F0E5FBFFF7BBFDFEF7DA
:1034C0009BFA00F07FF97D20C500284600F0DAFB6A
:1034D00000F066FB00F0A0F8FEF78CFC0920C006A7
:1034E0000124E1022246FEF70BFDFEF713FD3B200F
:1034F000B34901940C54392000240C54424800F084
:10350000C1FB00F0D1FB601C132C0446F9D3284604
:1035100000F0B8FB002400F06BFA601C1D2C044680
:10352000F9D3FFF7D1FEFFF741FEFFF73FFE00247E
:10353000FFF7C8FC601C042C0446F9D3FFF7A0FF7A
:103540009C4C9F4900E067553048314A0260887DB5
:103550000028F9D000278F7500F0A6FBFFF726FEA4
:1035600000F046FA00F0BCFBFFF76CFC00F072FACA
:1035700000F0B0FB00F0EEFCFFF782FF90492C203A
:10358000085CC00701D1384613E0FEF721F88C49EA
:103590000028F8D048680028F5D1608B0028F2D1C7
:1035A000864800680028EED1844880880028019869
:1035B000E9D14126A0554025605D0128C4D1FEF720
:1035C00007F87F490028BED0A05D0028BBD0444842
:1035D00000780228B7D148680028B4D1608B002851
:1035E000B1D1764800680028ADD1744880880028A1
:1035F000A9D1FDF7BBF97249A5E7C046FFFFFF005F
:10360000A086010000020020881300000030004066
:10361000AAAA000054000020B0B594B0482101A827
:10362000082242522822012181541E22828642858C
:103630000246483205239370034628339974752255
:10364000D2000287997300221A711E4B12931E4BEF
:1036500010931E4B0A931E4B0993079396230693D0
:1036600005931C4C04941C4B03931C4B0293019335
:103670007D239B0111934B2308939B000D934025C1
:10368000F04B5A5368255A5564255A5362255A53AC
:10369000D34D6A61E9812A701C625A62DA63DA6684
:1036A0001A855A831A635A631A879A64DA641A6508
:1036B0005A659A65DA650B491967FCF71FFD14B066
:1036C000B0BDC0467038390080020600D0073C000B
:1036D000F22B000070170000050028000500140000
:1036E000AC0100200100A803F0B581B00446052814
:1036F00021D8A00001A108588746C0461537000808
:103700002D37000821370008273700081B3700082D
:1037100033370008FFF762FB0DE0FFF7EFFB0AE02D
:10372000FFF792FE07E0FFF7D9FA04E0FFF766FC27
:1037300001E0FFF705FE0094012045040020664EDD
:103740001E4C074601213046FDF725FF304629462D
:10375000FDF786FD0028F9D030462946FDF7F2FC3A
:103760006020CD49085AF16A134A1140814205D9B7
:10377000081A7521C90080B2884206D82078C0078F
:1037800003D1781C122FDCD910E0FEF7CBFF207894
:10379000FE21014021700098032802D37F20C043FE
:1037A00000E04020AA494A7902434A71FEF7BAFF75
:1037B00001B0F0BD54000020FF0F0000A401002064
:1037C00000020020F0B583B0FEF7ACFF404E344657
:1037D000403C0127002220463946FFF71DF97D2590
:1037E000A800029000F04EFA30680190394830602D
:1037F000280100F047FA384D68694007FCD40026DC
:1038000028463146FDF702FD029800F03BFA2846B3
:103810003146FDF7E3FCF90628463246FDF726FE61
:10382000204639463246FFF7F7F828463146FDF77D
:10383000EDFC28463146FDF75FFC0522284631465F
:10384000FDF761FC28463946FDF74EFC284639460F
:10385000FDF7C4FC029800F015FA28463946FDF73A
:103860009AFE7F0428463946FDF7FAFC0028F9D075
:1038700028463946FDF766FC01212846FDF78BFEF8
:1038800028463946FDF7ECFC0028F9D02846394691
:10389000FDF758FCF4B22046FFF726FF192040013F
:1038A00000F0F0F9761C052CF4D300212846FDF732
:1038B00095FC029800F0E6F9FDF78CFE28463946A3
:1038C000FDF740FC019880B20149086003B0F0BDEB
:1038D000402C0140FFFF000000240140B0B56021F2
:1038E000AC48415A42898A4202D94289511A00E0C1
:1038F0000021FA4B1A78FB24144019229201032C60
:103900001AD1846C641C8464944205D900244464F4
:10391000847E0425254385765B69324CA3421BD304
:10392000C36D5B1CC36593421AD9827E0423134383
:1039300083760246443211E00021C165816541650C
:103940000165C1648164416C491C4164914246D95E
:10395000817E042291433FE002465C3200231360E3
:103960005922920091420BD9C36C5B1CC3641E4C5C
:10397000A34205D300234364837E04241C4384763E
:1039800014468634194BA1420CD9046D641C04659D
:103990001D465735AC4205D900244464847E042575
:1039A000254385761446DF34A1420BD9446D641C4F
:1039B00044657C32944205D900224264827E04240C
:1039C0001443847699420AD9816D491C8165A129E5
:1039D00005D3827E04211143002242648176B0BD6A
:1039E000AC010020A10F000001050000C902000089
:1039F00010B5B648018BC7290FD8134900220A70A9
:103A000012490A78521C0A70D1B2152905D32C210B
:103A1000AF4A535CFB241C405454008B80084B2855
:103A20000FD30A480021017007480178491C017032
:103A3000C8B2152805D32C20A5490A5C04231343DA
:103A40000B5410BD54000020CD010020CC010020FB
:103A50000002002080B59D48018BC9084B2902D285
:103A6000FF201A3015E0018B49097C2901D947480C
:103A70000FE0008B09494018FDF79EFA0849FDF751
:103A800014FA0849FDF74EFA0749FDF7B5F9FDF7B5
:103A9000A5FA9249488180BD54000020A8FDFFFF8F
:103AA000CD1CC74400805445CD8C8C43F0B581B00B
:103AB0008A49C8888A89824210D2334B1C78641C98
:103AC0001C70E4B2022C1AD300241C70921C92B217
:103AD000824200D302461046888110E00FD9294B5C
:103AE0001C78641C1C70E4B2022C08D300241C70E7
:103AF000032A01D3921E8A818A898242ECD3FF2055
:103B00001A302322D2008B89934200D888818B8976
:103B10001E4A1F4CA34200D38A818B89F4494C6B07
:103B20009C420DD21C4D2E78761C2E70F7B2B742F7
:103B300006D100262E70A41C9C4200D31C464C6368
:103B40004C6B9C4210D9154D2E78761C2E70F7B216
:103B5000B74209D100262E70032C01D3A41E4C635A
:103B60004C6B9C4200D24B634B6B834200D2486348
:103B7000486B904200D94A63888EFEF799FD01B0E8
:103B8000F0BDC046D6010020D4010020520700003D
:103B90005307000054000020D5010020D701002069
:103BA000B0B5C720C1431C481C4A0C46A518C82301
:103BB000ED5A854203D11434F8D1C82303E0002C18
:103BC00001D0C83423461C06A40E0ED0EC33FC24CE
:103BD0001C40A218C231124B5C185518ED88E580C4
:103BE000891CF9D11988814204D00D4800218180B7
:103BF000012141800A4842881106490E00D0012265
:103C00002023D349CA548288022A01D30022828009
:103C100080880863B0BDC046AA550000007C00083B
:103C2000D801002010B50322D301114A14689C4327
:103C30001460012901D0104900E00E49095CC90156
:103C400013680B4313600D490A680D4B1A400A6054
:103C50004A681A404A6001221205C00703D1486829
:103C60001043486010BD08681043086010BDC0468E
:103C7000083C0140340000203A00002008040140C4
:103C8000FFFFEFFF10B50F214143480805490A68BF
:103C900006D00B68D31AFF242406A3438342F8D32B
:103CA00010BDC04618E000E03820A84900220A54A0
:103CB0004A20A7490A54FF200230482288522C206B
:103CC0000A5CFD2313400B547047C046540000208B
:103CD000000200208E484189C1807047AC0100205D
:103CE000F0B581B06020994B1A5AD88900219042D2
:103CF000084606D9D889801A80B2FC4C246C44430B
:103D0000E00B5C89944206D95989891A89B2F74A2D
:103D1000126C4A43D10BF54E7082B182754F3B88CD
:103D2000FF220C3284B2A008432800910DD3581C06
:103D3000388083B27048834210D938806F4800239E
:103D4000038030790423034307E0002B02D0581E80
:103D5000388003E03079FB2303403371684D2888B5
:103D60001346DF339C420FD9431C2B801046E930A9
:103D70009BB2834211D9614B00251D80604B188096
:103D800030790823034307E0002802D0401E288032
:103D900003E03079F723034033715A4908885A4BBE
:103DA0001D464735AC420DD9401C088080B25128D1
:103DB00011D3502008805148002505803079102506
:103DC000054307E0002802D0401E088003E0307958
:103DD000EF25054035714D4D28881E46B236B44258
:103DE0000ED9401C288080B2062815D305202880D3
:103DF000424900200880BD4F38792023034308E062
:103E0000002802D0401E288006E0B84F3879DF2312
:103E100003403B713C4B374FB7480078944217D270
:103E2000002815D1354C23885B1C23809BB2C92BFD
:103E3000354B0DD3002323802B8032490B80304C2F
:103E400023803B80A94D2B79C3241C402E4B2C7121
:103E500000998DB2B54210D92E480188304A891890
:103E6000018009B20029A14A21D52C49018010798D
:103E700002210143117101B0F0BD194659318D4243
:103E80001E469A4B0AD92348018851183C310180BB
:103E900009B200290BD52149018014E01D490C8885
:103EA000B54206D928340C8020B2002809D401B0CC
:103EB000F0BD00280BD01448844211D916482018B0
:103EC0000BE0164808801879022101430DE08E327C
:103ED000944205D9104820187E30088001B0F0BD0A
:103EE000002008801879FD210140197101B0F0BD52
:103EF000540000204C020020B80B000054020020A7
:103F00004E02002050020020170200005202002042
:103F1000AC01002056020020E9FDFFFF0080FFFFFA
:103F2000CC0C000010B53821754A002050544A21AD
:103F30006E4A5054FF2102314823D1522C21535C48
:103F4000FD241C4054541070506010BD54000020DB
:103F50000002002070B5FDF73BFB00280AD12C21A0
:103F60006248425CFE23134043540178012901D189
:103F7000002101705D4E3078032800D99BE0C046D7
:103F80007844007940008744013810212C25705D69
:103F9000FE21014071550024B487716A491C716289
:103FA000544A914276D974620DE02C22B15CFE2015
:103FB0000B460340B354726A521C72624D4B9A42D4
:103FC0003BD9002070620320307070BD0020706209
:103FD0000920C4060120C50220462946FDF781FFBD
:103FE0002C20305C400766D541490868421E90414C
:103FF0008988002959D1400058E03D4881880068EF
:10400000084301D0022030702C20315C4A0701D4D3
:10401000002232704922B25C002A04D1FE221140F3
:10402000315400213170716B012944D1315CFE2281
:104030000A4032540020307070BD490732D4716894
:1040400000291FD12A4C2178CA0709D02A4A1278A0
:10405000002A05D10140217028480121FEF7CDFC3E
:104060002748418B042211404183A0881040A08042
:10407000002903D12079FB21014021712068012111
:10408000014021601A488188002914D10068002865
:10409000D0D010E016490A68898811430CD002205C
:1040A000307070BD0020706270BD022030702046FC
:1040B0002946FDF718FF70BD04210840716B0129E6
:1040C00003D10028F7D1746370BD0028F3D04820D5
:1040D000305C0028EFD0FDF77BFA0028EBD0705D54
:1040E0000121084370557462317070BD00020020D8
:1040F000A401002088130000AC010020002C014026
:104100005400002030B47446641E2578641CAB4211
:1041100000D21D46635D5B00E31830BC184702E027
:1041200008C8121F08C1002AFAD170477047002042
:1041300001E001C1121F002AFBD170476041000855
:1041400000000020480000001E410008A8410008AF
:1041500048000020100600002E410008000000006A
:10416000000000005A0000205800002056000020E7
:104170005A0000205800002056000020580000205F
:104180005A00002056000020580000205A0000204D
:104190005600002001020301020302010302010391
:0841A0000087930300000000FA
:04000005080000C12E
:00000001FF
